{
	"contracts/SmartContractWallet.sol": {
		"SmartContractWallet": {
			"abi": [
				{
					"inputs": [],
					"stateMutability": "nonpayable",
					"type": "constructor"
				},
				{
					"inputs": [
						{
							"internalType": "address",
							"name": "",
							"type": "address"
						}
					],
					"name": "allowance",
					"outputs": [
						{
							"internalType": "uint256",
							"name": "",
							"type": "uint256"
						}
					],
					"stateMutability": "view",
					"type": "function"
				},
				{
					"inputs": [],
					"name": "confirmationsFromGuardiansForReset",
					"outputs": [
						{
							"internalType": "uint256",
							"name": "",
							"type": "uint256"
						}
					],
					"stateMutability": "view",
					"type": "function"
				},
				{
					"inputs": [
						{
							"internalType": "address",
							"name": "_from",
							"type": "address"
						}
					],
					"name": "denySending",
					"outputs": [],
					"stateMutability": "nonpayable",
					"type": "function"
				},
				{
					"inputs": [
						{
							"internalType": "address",
							"name": "",
							"type": "address"
						}
					],
					"name": "guardian",
					"outputs": [
						{
							"internalType": "bool",
							"name": "",
							"type": "bool"
						}
					],
					"stateMutability": "view",
					"type": "function"
				},
				{
					"inputs": [
						{
							"internalType": "address",
							"name": "",
							"type": "address"
						}
					],
					"name": "isAllowToSend",
					"outputs": [
						{
							"internalType": "bool",
							"name": "",
							"type": "bool"
						}
					],
					"stateMutability": "view",
					"type": "function"
				},
				{
					"inputs": [
						{
							"internalType": "address payable",
							"name": "newOwner",
							"type": "address"
						}
					],
					"name": "proposeNewOwner",
					"outputs": [],
					"stateMutability": "nonpayable",
					"type": "function"
				},
				{
					"inputs": [
						{
							"internalType": "address",
							"name": "_from",
							"type": "address"
						},
						{
							"internalType": "uint256",
							"name": "_amount",
							"type": "uint256"
						}
					],
					"name": "setAllowance",
					"outputs": [],
					"stateMutability": "nonpayable",
					"type": "function"
				},
				{
					"inputs": [
						{
							"internalType": "address payable",
							"name": "_to",
							"type": "address"
						},
						{
							"internalType": "uint256",
							"name": "_amount",
							"type": "uint256"
						},
						{
							"internalType": "bytes",
							"name": "_payload",
							"type": "bytes"
						}
					],
					"name": "transfer",
					"outputs": [
						{
							"internalType": "bytes",
							"name": "",
							"type": "bytes"
						}
					],
					"stateMutability": "nonpayable",
					"type": "function"
				},
				{
					"stateMutability": "payable",
					"type": "receive"
				}
			],
			"devdoc": {
				"kind": "dev",
				"methods": {},
				"version": 1
			},
			"evm": {
				"assembly": "    /* \"contracts/SmartContractWallet.sol\":60:2037  contract SmartContractWallet {... */\n  mstore(0x40, 0x80)\n    /* \"contracts/SmartContractWallet.sol\":406:466  constructor(){... */\n  callvalue\n  dup1\n  iszero\n  tag_1\n  jumpi\n  0x00\n  dup1\n  revert\ntag_1:\n  pop\n    /* \"contracts/SmartContractWallet.sol\":447:457  msg.sender */\n  caller\n    /* \"contracts/SmartContractWallet.sol\":430:435  owner */\n  0x00\n  dup1\n    /* \"contracts/SmartContractWallet.sol\":430:458  owner = payable (msg.sender) */\n  0x0100\n  exp\n  dup2\n  sload\n  dup2\n  0xffffffffffffffffffffffffffffffffffffffff\n  mul\n  not\n  and\n  swap1\n  dup4\n  0xffffffffffffffffffffffffffffffffffffffff\n  and\n  mul\n  or\n  swap1\n  sstore\n  pop\n    /* \"contracts/SmartContractWallet.sol\":60:2037  contract SmartContractWallet {... */\n  dataSize(sub_0)\n  dup1\n  dataOffset(sub_0)\n  0x00\n  codecopy\n  0x00\n  return\nstop\n\nsub_0: assembly {\n        /* \"contracts/SmartContractWallet.sol\":60:2037  contract SmartContractWallet {... */\n      mstore(0x40, 0x80)\n      jumpi(tag_1, lt(calldatasize, 0x04))\n      shr(0xe0, calldataload(0x00))\n      dup1\n      0x83012be1\n      gt\n      tag_11\n      jumpi\n      dup1\n      0x83012be1\n      eq\n      tag_7\n      jumpi\n      dup1\n      0xb1f8100d\n      eq\n      tag_8\n      jumpi\n      dup1\n      0xbe45fd62\n      eq\n      tag_9\n      jumpi\n      dup1\n      0xf29e2236\n      eq\n      tag_10\n      jumpi\n      jump(tag_2)\n    tag_11:\n      dup1\n      0x2a663f8a\n      eq\n      tag_3\n      jumpi\n      dup1\n      0x310ec4a7\n      eq\n      tag_4\n      jumpi\n      dup1\n      0x3e5beab9\n      eq\n      tag_5\n      jumpi\n      dup1\n      0x7673de53\n      eq\n      tag_6\n      jumpi\n      jump(tag_2)\n    tag_1:\n      jumpi(tag_2, calldatasize)\n      stop\n    tag_2:\n      0x00\n      dup1\n      revert\n        /* \"contracts/SmartContractWallet.sol\":173:219  mapping (address => bool) public isAllowToSend */\n    tag_3:\n      callvalue\n      dup1\n      iszero\n      tag_14\n      jumpi\n      0x00\n      dup1\n      revert\n    tag_14:\n      pop\n      tag_15\n      0x04\n      dup1\n      calldatasize\n      sub\n      dup2\n      add\n      swap1\n      tag_16\n      swap2\n      swap1\n      tag_17\n      jump\t// in\n    tag_16:\n      tag_18\n      jump\t// in\n    tag_15:\n      mload(0x40)\n      tag_19\n      swap2\n      swap1\n      tag_20\n      jump\t// in\n    tag_19:\n      mload(0x40)\n      dup1\n      swap2\n      sub\n      swap1\n      return\n        /* \"contracts/SmartContractWallet.sol\":1110:1326  function setAllowance(address _from, uint _amount) public {... */\n    tag_4:\n      callvalue\n      dup1\n      iszero\n      tag_21\n      jumpi\n      0x00\n      dup1\n      revert\n    tag_21:\n      pop\n      tag_22\n      0x04\n      dup1\n      calldatasize\n      sub\n      dup2\n      add\n      swap1\n      tag_23\n      swap2\n      swap1\n      tag_24\n      jump\t// in\n    tag_23:\n      tag_25\n      jump\t// in\n    tag_22:\n      stop\n        /* \"contracts/SmartContractWallet.sol\":124:166  mapping (address => uint) public allowance */\n    tag_5:\n      callvalue\n      dup1\n      iszero\n      tag_26\n      jumpi\n      0x00\n      dup1\n      revert\n    tag_26:\n      pop\n      tag_27\n      0x04\n      dup1\n      calldatasize\n      sub\n      dup2\n      add\n      swap1\n      tag_28\n      swap2\n      swap1\n      tag_17\n      jump\t// in\n    tag_28:\n      tag_29\n      jump\t// in\n    tag_27:\n      mload(0x40)\n      tag_30\n      swap2\n      swap1\n      tag_31\n      jump\t// in\n    tag_30:\n      mload(0x40)\n      dup1\n      swap2\n      sub\n      swap1\n      return\n        /* \"contracts/SmartContractWallet.sol\":938:1102  function denySending(address _from) public {... */\n    tag_6:\n      callvalue\n      dup1\n      iszero\n      tag_32\n      jumpi\n      0x00\n      dup1\n      revert\n    tag_32:\n      pop\n      tag_33\n      0x04\n      dup1\n      calldatasize\n      sub\n      dup2\n      add\n      swap1\n      tag_34\n      swap2\n      swap1\n      tag_17\n      jump\t// in\n    tag_34:\n      tag_35\n      jump\t// in\n    tag_33:\n      stop\n        /* \"contracts/SmartContractWallet.sol\":338:397  uint public constant confirmationsFromGuardiansForReset = 3 */\n    tag_7:\n      callvalue\n      dup1\n      iszero\n      tag_36\n      jumpi\n      0x00\n      dup1\n      revert\n    tag_36:\n      pop\n      tag_37\n      tag_38\n      jump\t// in\n    tag_37:\n      mload(0x40)\n      tag_39\n      swap2\n      swap1\n      tag_31\n      jump\t// in\n    tag_39:\n      mload(0x40)\n      dup1\n      swap2\n      sub\n      swap1\n      return\n        /* \"contracts/SmartContractWallet.sol\":474:930  function proposeNewOwner(address payable newOwner) public {... */\n    tag_8:\n      callvalue\n      dup1\n      iszero\n      tag_40\n      jumpi\n      0x00\n      dup1\n      revert\n    tag_40:\n      pop\n      tag_41\n      0x04\n      dup1\n      calldatasize\n      sub\n      dup2\n      add\n      swap1\n      tag_42\n      swap2\n      swap1\n      tag_43\n      jump\t// in\n    tag_42:\n      tag_44\n      jump\t// in\n    tag_41:\n      stop\n        /* \"contracts/SmartContractWallet.sol\":1334:1996  function transfer(address payable _to, uint _amount, bytes memory _payload) public returns(bytes memory){... */\n    tag_9:\n      callvalue\n      dup1\n      iszero\n      tag_45\n      jumpi\n      0x00\n      dup1\n      revert\n    tag_45:\n      pop\n      tag_46\n      0x04\n      dup1\n      calldatasize\n      sub\n      dup2\n      add\n      swap1\n      tag_47\n      swap2\n      swap1\n      tag_48\n      jump\t// in\n    tag_47:\n      tag_49\n      jump\t// in\n    tag_46:\n      mload(0x40)\n      tag_50\n      swap2\n      swap1\n      tag_51\n      jump\t// in\n    tag_50:\n      mload(0x40)\n      dup1\n      swap2\n      sub\n      swap1\n      return\n        /* \"contracts/SmartContractWallet.sol\":226:267  mapping (address => bool) public guardian */\n    tag_10:\n      callvalue\n      dup1\n      iszero\n      tag_52\n      jumpi\n      0x00\n      dup1\n      revert\n    tag_52:\n      pop\n      tag_53\n      0x04\n      dup1\n      calldatasize\n      sub\n      dup2\n      add\n      swap1\n      tag_54\n      swap2\n      swap1\n      tag_17\n      jump\t// in\n    tag_54:\n      tag_55\n      jump\t// in\n    tag_53:\n      mload(0x40)\n      tag_56\n      swap2\n      swap1\n      tag_20\n      jump\t// in\n    tag_56:\n      mload(0x40)\n      dup1\n      swap2\n      sub\n      swap1\n      return\n        /* \"contracts/SmartContractWallet.sol\":173:219  mapping (address => bool) public isAllowToSend */\n    tag_18:\n      mstore(0x20, 0x02)\n      dup1\n      0x00\n      mstore\n      keccak256(0x00, 0x40)\n      0x00\n      swap2\n      pop\n      sload\n      swap1\n      0x0100\n      exp\n      swap1\n      div\n      0xff\n      and\n      dup2\n      jump\t// out\n        /* \"contracts/SmartContractWallet.sol\":1110:1326  function setAllowance(address _from, uint _amount) public {... */\n    tag_25:\n        /* \"contracts/SmartContractWallet.sol\":1201:1206  owner */\n      0x00\n      dup1\n      sload\n      swap1\n      0x0100\n      exp\n      swap1\n      div\n      0xffffffffffffffffffffffffffffffffffffffff\n      and\n        /* \"contracts/SmartContractWallet.sol\":1187:1206  msg.sender == owner */\n      0xffffffffffffffffffffffffffffffffffffffff\n      and\n        /* \"contracts/SmartContractWallet.sol\":1187:1197  msg.sender */\n      caller\n        /* \"contracts/SmartContractWallet.sol\":1187:1206  msg.sender == owner */\n      0xffffffffffffffffffffffffffffffffffffffff\n      and\n      eq\n        /* \"contracts/SmartContractWallet.sol\":1179:1243  require(msg.sender == owner, \"your are not the owner, aborting\") */\n      tag_58\n      jumpi\n      mload(0x40)\n      0x08c379a000000000000000000000000000000000000000000000000000000000\n      dup2\n      mstore\n      0x04\n      add\n      tag_59\n      swap1\n      tag_60\n      jump\t// in\n    tag_59:\n      mload(0x40)\n      dup1\n      swap2\n      sub\n      swap1\n      revert\n    tag_58:\n        /* \"contracts/SmartContractWallet.sol\":1273:1280  _amount */\n      dup1\n        /* \"contracts/SmartContractWallet.sol\":1254:1263  allowance */\n      0x01\n        /* \"contracts/SmartContractWallet.sol\":1254:1270  allowance[_from] */\n      0x00\n        /* \"contracts/SmartContractWallet.sol\":1264:1269  _from */\n      dup5\n        /* \"contracts/SmartContractWallet.sol\":1254:1270  allowance[_from] */\n      0xffffffffffffffffffffffffffffffffffffffff\n      and\n      0xffffffffffffffffffffffffffffffffffffffff\n      and\n      dup2\n      mstore\n      0x20\n      add\n      swap1\n      dup2\n      mstore\n      0x20\n      add\n      0x00\n      keccak256\n        /* \"contracts/SmartContractWallet.sol\":1254:1280  allowance[_from] = _amount */\n      dup2\n      swap1\n      sstore\n      pop\n        /* \"contracts/SmartContractWallet.sol\":1314:1318  true */\n      0x01\n        /* \"contracts/SmartContractWallet.sol\":1291:1304  isAllowToSend */\n      0x02\n        /* \"contracts/SmartContractWallet.sol\":1291:1311  isAllowToSend[_from] */\n      0x00\n        /* \"contracts/SmartContractWallet.sol\":1305:1310  _from */\n      dup5\n        /* \"contracts/SmartContractWallet.sol\":1291:1311  isAllowToSend[_from] */\n      0xffffffffffffffffffffffffffffffffffffffff\n      and\n      0xffffffffffffffffffffffffffffffffffffffff\n      and\n      dup2\n      mstore\n      0x20\n      add\n      swap1\n      dup2\n      mstore\n      0x20\n      add\n      0x00\n      keccak256\n      0x00\n        /* \"contracts/SmartContractWallet.sol\":1291:1318  isAllowToSend[_from] = true */\n      0x0100\n      exp\n      dup2\n      sload\n      dup2\n      0xff\n      mul\n      not\n      and\n      swap1\n      dup4\n      iszero\n      iszero\n      mul\n      or\n      swap1\n      sstore\n      pop\n        /* \"contracts/SmartContractWallet.sol\":1110:1326  function setAllowance(address _from, uint _amount) public {... */\n      pop\n      pop\n      jump\t// out\n        /* \"contracts/SmartContractWallet.sol\":124:166  mapping (address => uint) public allowance */\n    tag_29:\n      mstore(0x20, 0x01)\n      dup1\n      0x00\n      mstore\n      keccak256(0x00, 0x40)\n      0x00\n      swap2\n      pop\n      swap1\n      pop\n      sload\n      dup2\n      jump\t// out\n        /* \"contracts/SmartContractWallet.sol\":938:1102  function denySending(address _from) public {... */\n    tag_35:\n        /* \"contracts/SmartContractWallet.sol\":1014:1019  owner */\n      0x00\n      dup1\n      sload\n      swap1\n      0x0100\n      exp\n      swap1\n      div\n      0xffffffffffffffffffffffffffffffffffffffff\n      and\n        /* \"contracts/SmartContractWallet.sol\":1000:1019  msg.sender == owner */\n      0xffffffffffffffffffffffffffffffffffffffff\n      and\n        /* \"contracts/SmartContractWallet.sol\":1000:1010  msg.sender */\n      caller\n        /* \"contracts/SmartContractWallet.sol\":1000:1019  msg.sender == owner */\n      0xffffffffffffffffffffffffffffffffffffffff\n      and\n      eq\n        /* \"contracts/SmartContractWallet.sol\":992:1055  require(msg.sender == owner, \"You are not the owner, aborting\") */\n      tag_62\n      jumpi\n      mload(0x40)\n      0x08c379a000000000000000000000000000000000000000000000000000000000\n      dup2\n      mstore\n      0x04\n      add\n      tag_63\n      swap1\n      tag_64\n      jump\t// in\n    tag_63:\n      mload(0x40)\n      dup1\n      swap2\n      sub\n      swap1\n      revert\n    tag_62:\n        /* \"contracts/SmartContractWallet.sol\":1089:1094  false */\n      0x00\n        /* \"contracts/SmartContractWallet.sol\":1066:1079  isAllowToSend */\n      0x02\n        /* \"contracts/SmartContractWallet.sol\":1066:1086  isAllowToSend[_from] */\n      0x00\n        /* \"contracts/SmartContractWallet.sol\":1080:1085  _from */\n      dup4\n        /* \"contracts/SmartContractWallet.sol\":1066:1086  isAllowToSend[_from] */\n      0xffffffffffffffffffffffffffffffffffffffff\n      and\n      0xffffffffffffffffffffffffffffffffffffffff\n      and\n      dup2\n      mstore\n      0x20\n      add\n      swap1\n      dup2\n      mstore\n      0x20\n      add\n      0x00\n      keccak256\n      0x00\n        /* \"contracts/SmartContractWallet.sol\":1066:1094  isAllowToSend[_from] = false */\n      0x0100\n      exp\n      dup2\n      sload\n      dup2\n      0xff\n      mul\n      not\n      and\n      swap1\n      dup4\n      iszero\n      iszero\n      mul\n      or\n      swap1\n      sstore\n      pop\n        /* \"contracts/SmartContractWallet.sol\":938:1102  function denySending(address _from) public {... */\n      pop\n      jump\t// out\n        /* \"contracts/SmartContractWallet.sol\":338:397  uint public constant confirmationsFromGuardiansForReset = 3 */\n    tag_38:\n        /* \"contracts/SmartContractWallet.sol\":396:397  3 */\n      0x03\n        /* \"contracts/SmartContractWallet.sol\":338:397  uint public constant confirmationsFromGuardiansForReset = 3 */\n      dup2\n      jump\t// out\n        /* \"contracts/SmartContractWallet.sol\":474:930  function proposeNewOwner(address payable newOwner) public {... */\n    tag_44:\n        /* \"contracts/SmartContractWallet.sol\":551:559  guardian */\n      0x03\n        /* \"contracts/SmartContractWallet.sol\":551:571  guardian[msg.sender] */\n      0x00\n        /* \"contracts/SmartContractWallet.sol\":560:570  msg.sender */\n      caller\n        /* \"contracts/SmartContractWallet.sol\":551:571  guardian[msg.sender] */\n      0xffffffffffffffffffffffffffffffffffffffff\n      and\n      0xffffffffffffffffffffffffffffffffffffffff\n      and\n      dup2\n      mstore\n      0x20\n      add\n      swap1\n      dup2\n      mstore\n      0x20\n      add\n      0x00\n      keccak256\n      0x00\n      swap1\n      sload\n      swap1\n      0x0100\n      exp\n      swap1\n      div\n      0xff\n      and\n        /* \"contracts/SmartContractWallet.sol\":543:605  require(guardian[msg.sender], \"You are no guardian, aborting\") */\n      tag_66\n      jumpi\n      mload(0x40)\n      0x08c379a000000000000000000000000000000000000000000000000000000000\n      dup2\n      mstore\n      0x04\n      add\n      tag_67\n      swap1\n      tag_68\n      jump\t// in\n    tag_67:\n      mload(0x40)\n      dup1\n      swap2\n      sub\n      swap1\n      revert\n    tag_66:\n        /* \"contracts/SmartContractWallet.sol\":632:640  newOwner */\n      dup1\n        /* \"contracts/SmartContractWallet.sol\":619:640  nextOwner != newOwner */\n      0xffffffffffffffffffffffffffffffffffffffff\n      and\n        /* \"contracts/SmartContractWallet.sol\":619:628  nextOwner */\n      0x04\n      0x00\n      swap1\n      sload\n      swap1\n      0x0100\n      exp\n      swap1\n      div\n      0xffffffffffffffffffffffffffffffffffffffff\n      and\n        /* \"contracts/SmartContractWallet.sol\":619:640  nextOwner != newOwner */\n      0xffffffffffffffffffffffffffffffffffffffff\n      and\n      eq\n        /* \"contracts/SmartContractWallet.sol\":616:726  if(nextOwner != newOwner){... */\n      tag_69\n      jumpi\n        /* \"contracts/SmartContractWallet.sol\":668:676  newOwner */\n      dup1\n        /* \"contracts/SmartContractWallet.sol\":656:665  nextOwner */\n      0x04\n      0x00\n        /* \"contracts/SmartContractWallet.sol\":656:676  nextOwner = newOwner */\n      0x0100\n      exp\n      dup2\n      sload\n      dup2\n      0xffffffffffffffffffffffffffffffffffffffff\n      mul\n      not\n      and\n      swap1\n      dup4\n      0xffffffffffffffffffffffffffffffffffffffff\n      and\n      mul\n      or\n      swap1\n      sstore\n      pop\n        /* \"contracts/SmartContractWallet.sol\":713:714  0 */\n      0x00\n        /* \"contracts/SmartContractWallet.sol\":691:710  guardiansResetCount */\n      0x05\n        /* \"contracts/SmartContractWallet.sol\":691:714  guardiansResetCount = 0 */\n      dup2\n      swap1\n      sstore\n      pop\n        /* \"contracts/SmartContractWallet.sol\":616:726  if(nextOwner != newOwner){... */\n    tag_69:\n        /* \"contracts/SmartContractWallet.sol\":738:757  guardiansResetCount */\n      0x05\n      0x00\n        /* \"contracts/SmartContractWallet.sol\":738:759  guardiansResetCount++ */\n      dup2\n      sload\n      dup1\n      swap3\n      swap2\n      swap1\n      tag_70\n      swap1\n      tag_71\n      jump\t// in\n    tag_70:\n      swap2\n      swap1\n      pop\n      sstore\n      pop\n        /* \"contracts/SmartContractWallet.sol\":396:397  3 */\n      0x03\n        /* \"contracts/SmartContractWallet.sol\":775:794  guardiansResetCount */\n      sload(0x05)\n        /* \"contracts/SmartContractWallet.sol\":775:832  guardiansResetCount >= confirmationsFromGuardiansForReset */\n      lt\n        /* \"contracts/SmartContractWallet.sol\":772:923  if(guardiansResetCount >= confirmationsFromGuardiansForReset){... */\n      tag_72\n      jumpi\n        /* \"contracts/SmartContractWallet.sol\":856:864  newOwner */\n      dup1\n        /* \"contracts/SmartContractWallet.sol\":848:853  owner */\n      0x00\n      dup1\n        /* \"contracts/SmartContractWallet.sol\":848:864  owner = newOwner */\n      0x0100\n      exp\n      dup2\n      sload\n      dup2\n      0xffffffffffffffffffffffffffffffffffffffff\n      mul\n      not\n      and\n      swap1\n      dup4\n      0xffffffffffffffffffffffffffffffffffffffff\n      and\n      mul\n      or\n      swap1\n      sstore\n      pop\n        /* \"contracts/SmartContractWallet.sol\":908:909  0 */\n      0x00\n        /* \"contracts/SmartContractWallet.sol\":879:888  nextOwner */\n      0x04\n      0x00\n        /* \"contracts/SmartContractWallet.sol\":879:911  nextOwner = payable (address(0)) */\n      0x0100\n      exp\n      dup2\n      sload\n      dup2\n      0xffffffffffffffffffffffffffffffffffffffff\n      mul\n      not\n      and\n      swap1\n      dup4\n      0xffffffffffffffffffffffffffffffffffffffff\n      and\n      mul\n      or\n      swap1\n      sstore\n      pop\n        /* \"contracts/SmartContractWallet.sol\":772:923  if(guardiansResetCount >= confirmationsFromGuardiansForReset){... */\n    tag_72:\n        /* \"contracts/SmartContractWallet.sol\":474:930  function proposeNewOwner(address payable newOwner) public {... */\n      pop\n      jump\t// out\n        /* \"contracts/SmartContractWallet.sol\":1334:1996  function transfer(address payable _to, uint _amount, bytes memory _payload) public returns(bytes memory){... */\n    tag_49:\n        /* \"contracts/SmartContractWallet.sol\":1425:1437  bytes memory */\n      0x60\n        /* \"contracts/SmartContractWallet.sol\":1468:1489  address(this).balance */\n      selfbalance\n        /* \"contracts/SmartContractWallet.sol\":1457:1464  _amount */\n      dup4\n        /* \"contracts/SmartContractWallet.sol\":1457:1489  _amount <= address(this).balance */\n      gt\n      iszero\n        /* \"contracts/SmartContractWallet.sol\":1449:1490  require(_amount <= address(this).balance) */\n      tag_74\n      jumpi\n      0x00\n      dup1\n      revert\n    tag_74:\n        /* \"contracts/SmartContractWallet.sol\":1518:1523  owner */\n      0x00\n      dup1\n      sload\n      swap1\n      0x0100\n      exp\n      swap1\n      div\n      0xffffffffffffffffffffffffffffffffffffffff\n      and\n        /* \"contracts/SmartContractWallet.sol\":1504:1523  msg.sender != owner */\n      0xffffffffffffffffffffffffffffffffffffffff\n      and\n        /* \"contracts/SmartContractWallet.sol\":1504:1514  msg.sender */\n      caller\n        /* \"contracts/SmartContractWallet.sol\":1504:1523  msg.sender != owner */\n      0xffffffffffffffffffffffffffffffffffffffff\n      and\n      eq\n        /* \"contracts/SmartContractWallet.sol\":1501:1811  if(msg.sender != owner){... */\n      tag_75\n      jumpi\n        /* \"contracts/SmartContractWallet.sol\":1547:1560  isAllowToSend */\n      0x02\n        /* \"contracts/SmartContractWallet.sol\":1547:1572  isAllowToSend[msg.sender] */\n      0x00\n        /* \"contracts/SmartContractWallet.sol\":1561:1571  msg.sender */\n      caller\n        /* \"contracts/SmartContractWallet.sol\":1547:1572  isAllowToSend[msg.sender] */\n      0xffffffffffffffffffffffffffffffffffffffff\n      and\n      0xffffffffffffffffffffffffffffffffffffffff\n      and\n      dup2\n      mstore\n      0x20\n      add\n      swap1\n      dup2\n      mstore\n      0x20\n      add\n      0x00\n      keccak256\n      0x00\n      swap1\n      sload\n      swap1\n      0x0100\n      exp\n      swap1\n      div\n      0xff\n      and\n        /* \"contracts/SmartContractWallet.sol\":1539:1631  require(isAllowToSend[msg.sender], \"You are not allowed to send any transactions, aborting\") */\n      tag_76\n      jumpi\n      mload(0x40)\n      0x08c379a000000000000000000000000000000000000000000000000000000000\n      dup2\n      mstore\n      0x04\n      add\n      tag_77\n      swap1\n      tag_78\n      jump\t// in\n    tag_77:\n      mload(0x40)\n      dup1\n      swap2\n      sub\n      swap1\n      revert\n    tag_76:\n        /* \"contracts/SmartContractWallet.sol\":1679:1686  _amount */\n      dup3\n        /* \"contracts/SmartContractWallet.sol\":1654:1663  allowance */\n      0x01\n        /* \"contracts/SmartContractWallet.sol\":1654:1675  allowance[msg.sender] */\n      0x00\n        /* \"contracts/SmartContractWallet.sol\":1664:1674  msg.sender */\n      caller\n        /* \"contracts/SmartContractWallet.sol\":1654:1675  allowance[msg.sender] */\n      0xffffffffffffffffffffffffffffffffffffffff\n      and\n      0xffffffffffffffffffffffffffffffffffffffff\n      and\n      dup2\n      mstore\n      0x20\n      add\n      swap1\n      dup2\n      mstore\n      0x20\n      add\n      0x00\n      keccak256\n      sload\n        /* \"contracts/SmartContractWallet.sol\":1654:1686  allowance[msg.sender] >= _amount */\n      lt\n      iszero\n        /* \"contracts/SmartContractWallet.sol\":1646:1752  require(allowance[msg.sender] >= _amount, \"You are trying to send more than you are allowed to, aborting\") */\n      tag_79\n      jumpi\n      mload(0x40)\n      0x08c379a000000000000000000000000000000000000000000000000000000000\n      dup2\n      mstore\n      0x04\n      add\n      tag_80\n      swap1\n      tag_81\n      jump\t// in\n    tag_80:\n      mload(0x40)\n      dup1\n      swap2\n      sub\n      swap1\n      revert\n    tag_79:\n        /* \"contracts/SmartContractWallet.sol\":1792:1799  _amount */\n      dup3\n        /* \"contracts/SmartContractWallet.sol\":1767:1776  allowance */\n      0x01\n        /* \"contracts/SmartContractWallet.sol\":1767:1788  allowance[msg.sender] */\n      0x00\n        /* \"contracts/SmartContractWallet.sol\":1777:1787  msg.sender */\n      caller\n        /* \"contracts/SmartContractWallet.sol\":1767:1788  allowance[msg.sender] */\n      0xffffffffffffffffffffffffffffffffffffffff\n      and\n      0xffffffffffffffffffffffffffffffffffffffff\n      and\n      dup2\n      mstore\n      0x20\n      add\n      swap1\n      dup2\n      mstore\n      0x20\n      add\n      0x00\n      keccak256\n      0x00\n        /* \"contracts/SmartContractWallet.sol\":1767:1799  allowance[msg.sender] -= _amount */\n      dup3\n      dup3\n      sload\n      tag_82\n      swap2\n      swap1\n      tag_83\n      jump\t// in\n    tag_82:\n      swap3\n      pop\n      pop\n      dup2\n      swap1\n      sstore\n      pop\n        /* \"contracts/SmartContractWallet.sol\":1501:1811  if(msg.sender != owner){... */\n    tag_75:\n        /* \"contracts/SmartContractWallet.sol\":1822:1834  bool success */\n      0x00\n        /* \"contracts/SmartContractWallet.sol\":1836:1859  bytes memory returnData */\n      dup1\n        /* \"contracts/SmartContractWallet.sol\":1863:1866  _to */\n      dup6\n        /* \"contracts/SmartContractWallet.sol\":1863:1871  _to.call */\n      0xffffffffffffffffffffffffffffffffffffffff\n      and\n        /* \"contracts/SmartContractWallet.sol\":1878:1885  _amount */\n      dup6\n        /* \"contracts/SmartContractWallet.sol\":1887:1895  _payload */\n      dup6\n        /* \"contracts/SmartContractWallet.sol\":1863:1896  _to.call{value:_amount}(_payload) */\n      mload(0x40)\n      tag_84\n      swap2\n      swap1\n      tag_85\n      jump\t// in\n    tag_84:\n      0x00\n      mload(0x40)\n      dup1\n      dup4\n      sub\n      dup2\n      dup6\n      dup8\n      gas\n      call\n      swap3\n      pop\n      pop\n      pop\n      returndatasize\n      dup1\n      0x00\n      dup2\n      eq\n      tag_88\n      jumpi\n      mload(0x40)\n      swap2\n      pop\n      and(add(returndatasize, 0x3f), not(0x1f))\n      dup3\n      add\n      0x40\n      mstore\n      returndatasize\n      dup3\n      mstore\n      returndatasize\n      0x00\n      0x20\n      dup5\n      add\n      returndatacopy\n      jump(tag_87)\n    tag_88:\n      0x60\n      swap2\n      pop\n    tag_87:\n      pop\n        /* \"contracts/SmartContractWallet.sol\":1821:1896  (bool success, bytes memory returnData) = _to.call{value:_amount}(_payload) */\n      swap2\n      pop\n      swap2\n      pop\n        /* \"contracts/SmartContractWallet.sol\":1915:1922  success */\n      dup2\n        /* \"contracts/SmartContractWallet.sol\":1907:1960  require(success, \"Aborting, call was not successful\") */\n      tag_89\n      jumpi\n      mload(0x40)\n      0x08c379a000000000000000000000000000000000000000000000000000000000\n      dup2\n      mstore\n      0x04\n      add\n      tag_90\n      swap1\n      tag_91\n      jump\t// in\n    tag_90:\n      mload(0x40)\n      dup1\n      swap2\n      sub\n      swap1\n      revert\n    tag_89:\n        /* \"contracts/SmartContractWallet.sol\":1978:1988  returnData */\n      dup1\n        /* \"contracts/SmartContractWallet.sol\":1971:1988  return returnData */\n      swap3\n      pop\n      pop\n      pop\n        /* \"contracts/SmartContractWallet.sol\":1334:1996  function transfer(address payable _to, uint _amount, bytes memory _payload) public returns(bytes memory){... */\n      swap4\n      swap3\n      pop\n      pop\n      pop\n      jump\t// out\n        /* \"contracts/SmartContractWallet.sol\":226:267  mapping (address => bool) public guardian */\n    tag_55:\n      mstore(0x20, 0x03)\n      dup1\n      0x00\n      mstore\n      keccak256(0x00, 0x40)\n      0x00\n      swap2\n      pop\n      sload\n      swap1\n      0x0100\n      exp\n      swap1\n      div\n      0xff\n      and\n      dup2\n      jump\t// out\n        /* \"#utility.yul\":7:82   */\n    tag_92:\n        /* \"#utility.yul\":40:46   */\n      0x00\n        /* \"#utility.yul\":73:75   */\n      0x40\n        /* \"#utility.yul\":67:76   */\n      mload\n        /* \"#utility.yul\":57:76   */\n      swap1\n      pop\n        /* \"#utility.yul\":7:82   */\n      swap1\n      jump\t// out\n        /* \"#utility.yul\":88:205   */\n    tag_93:\n        /* \"#utility.yul\":197:198   */\n      0x00\n        /* \"#utility.yul\":194:195   */\n      dup1\n        /* \"#utility.yul\":187:199   */\n      revert\n        /* \"#utility.yul\":211:328   */\n    tag_94:\n        /* \"#utility.yul\":320:321   */\n      0x00\n        /* \"#utility.yul\":317:318   */\n      dup1\n        /* \"#utility.yul\":310:322   */\n      revert\n        /* \"#utility.yul\":334:460   */\n    tag_95:\n        /* \"#utility.yul\":371:378   */\n      0x00\n        /* \"#utility.yul\":411:453   */\n      0xffffffffffffffffffffffffffffffffffffffff\n        /* \"#utility.yul\":404:409   */\n      dup3\n        /* \"#utility.yul\":400:454   */\n      and\n        /* \"#utility.yul\":389:454   */\n      swap1\n      pop\n        /* \"#utility.yul\":334:460   */\n      swap2\n      swap1\n      pop\n      jump\t// out\n        /* \"#utility.yul\":466:562   */\n    tag_96:\n        /* \"#utility.yul\":503:510   */\n      0x00\n        /* \"#utility.yul\":532:556   */\n      tag_144\n        /* \"#utility.yul\":550:555   */\n      dup3\n        /* \"#utility.yul\":532:556   */\n      tag_95\n      jump\t// in\n    tag_144:\n        /* \"#utility.yul\":521:556   */\n      swap1\n      pop\n        /* \"#utility.yul\":466:562   */\n      swap2\n      swap1\n      pop\n      jump\t// out\n        /* \"#utility.yul\":568:690   */\n    tag_97:\n        /* \"#utility.yul\":641:665   */\n      tag_146\n        /* \"#utility.yul\":659:664   */\n      dup2\n        /* \"#utility.yul\":641:665   */\n      tag_96\n      jump\t// in\n    tag_146:\n        /* \"#utility.yul\":634:639   */\n      dup2\n        /* \"#utility.yul\":631:666   */\n      eq\n        /* \"#utility.yul\":621:684   */\n      tag_147\n      jumpi\n        /* \"#utility.yul\":680:681   */\n      0x00\n        /* \"#utility.yul\":677:678   */\n      dup1\n        /* \"#utility.yul\":670:682   */\n      revert\n        /* \"#utility.yul\":621:684   */\n    tag_147:\n        /* \"#utility.yul\":568:690   */\n      pop\n      jump\t// out\n        /* \"#utility.yul\":696:835   */\n    tag_98:\n        /* \"#utility.yul\":742:747   */\n      0x00\n        /* \"#utility.yul\":780:786   */\n      dup2\n        /* \"#utility.yul\":767:787   */\n      calldataload\n        /* \"#utility.yul\":758:787   */\n      swap1\n      pop\n        /* \"#utility.yul\":796:829   */\n      tag_149\n        /* \"#utility.yul\":823:828   */\n      dup2\n        /* \"#utility.yul\":796:829   */\n      tag_97\n      jump\t// in\n    tag_149:\n        /* \"#utility.yul\":696:835   */\n      swap3\n      swap2\n      pop\n      pop\n      jump\t// out\n        /* \"#utility.yul\":841:1170   */\n    tag_17:\n        /* \"#utility.yul\":900:906   */\n      0x00\n        /* \"#utility.yul\":949:951   */\n      0x20\n        /* \"#utility.yul\":937:946   */\n      dup3\n        /* \"#utility.yul\":928:935   */\n      dup5\n        /* \"#utility.yul\":924:947   */\n      sub\n        /* \"#utility.yul\":920:952   */\n      slt\n        /* \"#utility.yul\":917:1036   */\n      iszero\n      tag_151\n      jumpi\n        /* \"#utility.yul\":955:1034   */\n      tag_152\n      tag_93\n      jump\t// in\n    tag_152:\n        /* \"#utility.yul\":917:1036   */\n    tag_151:\n        /* \"#utility.yul\":1075:1076   */\n      0x00\n        /* \"#utility.yul\":1100:1153   */\n      tag_153\n        /* \"#utility.yul\":1145:1152   */\n      dup5\n        /* \"#utility.yul\":1136:1142   */\n      dup3\n        /* \"#utility.yul\":1125:1134   */\n      dup6\n        /* \"#utility.yul\":1121:1143   */\n      add\n        /* \"#utility.yul\":1100:1153   */\n      tag_98\n      jump\t// in\n    tag_153:\n        /* \"#utility.yul\":1090:1153   */\n      swap2\n      pop\n        /* \"#utility.yul\":1046:1163   */\n      pop\n        /* \"#utility.yul\":841:1170   */\n      swap3\n      swap2\n      pop\n      pop\n      jump\t// out\n        /* \"#utility.yul\":1176:1266   */\n    tag_99:\n        /* \"#utility.yul\":1210:1217   */\n      0x00\n        /* \"#utility.yul\":1253:1258   */\n      dup2\n        /* \"#utility.yul\":1246:1259   */\n      iszero\n        /* \"#utility.yul\":1239:1260   */\n      iszero\n        /* \"#utility.yul\":1228:1260   */\n      swap1\n      pop\n        /* \"#utility.yul\":1176:1266   */\n      swap2\n      swap1\n      pop\n      jump\t// out\n        /* \"#utility.yul\":1272:1381   */\n    tag_100:\n        /* \"#utility.yul\":1353:1374   */\n      tag_156\n        /* \"#utility.yul\":1368:1373   */\n      dup2\n        /* \"#utility.yul\":1353:1374   */\n      tag_99\n      jump\t// in\n    tag_156:\n        /* \"#utility.yul\":1348:1351   */\n      dup3\n        /* \"#utility.yul\":1341:1375   */\n      mstore\n        /* \"#utility.yul\":1272:1381   */\n      pop\n      pop\n      jump\t// out\n        /* \"#utility.yul\":1387:1597   */\n    tag_20:\n        /* \"#utility.yul\":1474:1478   */\n      0x00\n        /* \"#utility.yul\":1512:1514   */\n      0x20\n        /* \"#utility.yul\":1501:1510   */\n      dup3\n        /* \"#utility.yul\":1497:1515   */\n      add\n        /* \"#utility.yul\":1489:1515   */\n      swap1\n      pop\n        /* \"#utility.yul\":1525:1590   */\n      tag_158\n        /* \"#utility.yul\":1587:1588   */\n      0x00\n        /* \"#utility.yul\":1576:1585   */\n      dup4\n        /* \"#utility.yul\":1572:1589   */\n      add\n        /* \"#utility.yul\":1563:1569   */\n      dup5\n        /* \"#utility.yul\":1525:1590   */\n      tag_100\n      jump\t// in\n    tag_158:\n        /* \"#utility.yul\":1387:1597   */\n      swap3\n      swap2\n      pop\n      pop\n      jump\t// out\n        /* \"#utility.yul\":1603:1680   */\n    tag_101:\n        /* \"#utility.yul\":1640:1647   */\n      0x00\n        /* \"#utility.yul\":1669:1674   */\n      dup2\n        /* \"#utility.yul\":1658:1674   */\n      swap1\n      pop\n        /* \"#utility.yul\":1603:1680   */\n      swap2\n      swap1\n      pop\n      jump\t// out\n        /* \"#utility.yul\":1686:1808   */\n    tag_102:\n        /* \"#utility.yul\":1759:1783   */\n      tag_161\n        /* \"#utility.yul\":1777:1782   */\n      dup2\n        /* \"#utility.yul\":1759:1783   */\n      tag_101\n      jump\t// in\n    tag_161:\n        /* \"#utility.yul\":1752:1757   */\n      dup2\n        /* \"#utility.yul\":1749:1784   */\n      eq\n        /* \"#utility.yul\":1739:1802   */\n      tag_162\n      jumpi\n        /* \"#utility.yul\":1798:1799   */\n      0x00\n        /* \"#utility.yul\":1795:1796   */\n      dup1\n        /* \"#utility.yul\":1788:1800   */\n      revert\n        /* \"#utility.yul\":1739:1802   */\n    tag_162:\n        /* \"#utility.yul\":1686:1808   */\n      pop\n      jump\t// out\n        /* \"#utility.yul\":1814:1953   */\n    tag_103:\n        /* \"#utility.yul\":1860:1865   */\n      0x00\n        /* \"#utility.yul\":1898:1904   */\n      dup2\n        /* \"#utility.yul\":1885:1905   */\n      calldataload\n        /* \"#utility.yul\":1876:1905   */\n      swap1\n      pop\n        /* \"#utility.yul\":1914:1947   */\n      tag_164\n        /* \"#utility.yul\":1941:1946   */\n      dup2\n        /* \"#utility.yul\":1914:1947   */\n      tag_102\n      jump\t// in\n    tag_164:\n        /* \"#utility.yul\":1814:1953   */\n      swap3\n      swap2\n      pop\n      pop\n      jump\t// out\n        /* \"#utility.yul\":1959:2433   */\n    tag_24:\n        /* \"#utility.yul\":2027:2033   */\n      0x00\n        /* \"#utility.yul\":2035:2041   */\n      dup1\n        /* \"#utility.yul\":2084:2086   */\n      0x40\n        /* \"#utility.yul\":2072:2081   */\n      dup4\n        /* \"#utility.yul\":2063:2070   */\n      dup6\n        /* \"#utility.yul\":2059:2082   */\n      sub\n        /* \"#utility.yul\":2055:2087   */\n      slt\n        /* \"#utility.yul\":2052:2171   */\n      iszero\n      tag_166\n      jumpi\n        /* \"#utility.yul\":2090:2169   */\n      tag_167\n      tag_93\n      jump\t// in\n    tag_167:\n        /* \"#utility.yul\":2052:2171   */\n    tag_166:\n        /* \"#utility.yul\":2210:2211   */\n      0x00\n        /* \"#utility.yul\":2235:2288   */\n      tag_168\n        /* \"#utility.yul\":2280:2287   */\n      dup6\n        /* \"#utility.yul\":2271:2277   */\n      dup3\n        /* \"#utility.yul\":2260:2269   */\n      dup7\n        /* \"#utility.yul\":2256:2278   */\n      add\n        /* \"#utility.yul\":2235:2288   */\n      tag_98\n      jump\t// in\n    tag_168:\n        /* \"#utility.yul\":2225:2288   */\n      swap3\n      pop\n        /* \"#utility.yul\":2181:2298   */\n      pop\n        /* \"#utility.yul\":2337:2339   */\n      0x20\n        /* \"#utility.yul\":2363:2416   */\n      tag_169\n        /* \"#utility.yul\":2408:2415   */\n      dup6\n        /* \"#utility.yul\":2399:2405   */\n      dup3\n        /* \"#utility.yul\":2388:2397   */\n      dup7\n        /* \"#utility.yul\":2384:2406   */\n      add\n        /* \"#utility.yul\":2363:2416   */\n      tag_103\n      jump\t// in\n    tag_169:\n        /* \"#utility.yul\":2353:2416   */\n      swap2\n      pop\n        /* \"#utility.yul\":2308:2426   */\n      pop\n        /* \"#utility.yul\":1959:2433   */\n      swap3\n      pop\n      swap3\n      swap1\n      pop\n      jump\t// out\n        /* \"#utility.yul\":2439:2557   */\n    tag_104:\n        /* \"#utility.yul\":2526:2550   */\n      tag_171\n        /* \"#utility.yul\":2544:2549   */\n      dup2\n        /* \"#utility.yul\":2526:2550   */\n      tag_101\n      jump\t// in\n    tag_171:\n        /* \"#utility.yul\":2521:2524   */\n      dup3\n        /* \"#utility.yul\":2514:2551   */\n      mstore\n        /* \"#utility.yul\":2439:2557   */\n      pop\n      pop\n      jump\t// out\n        /* \"#utility.yul\":2563:2785   */\n    tag_31:\n        /* \"#utility.yul\":2656:2660   */\n      0x00\n        /* \"#utility.yul\":2694:2696   */\n      0x20\n        /* \"#utility.yul\":2683:2692   */\n      dup3\n        /* \"#utility.yul\":2679:2697   */\n      add\n        /* \"#utility.yul\":2671:2697   */\n      swap1\n      pop\n        /* \"#utility.yul\":2707:2778   */\n      tag_173\n        /* \"#utility.yul\":2775:2776   */\n      0x00\n        /* \"#utility.yul\":2764:2773   */\n      dup4\n        /* \"#utility.yul\":2760:2777   */\n      add\n        /* \"#utility.yul\":2751:2757   */\n      dup5\n        /* \"#utility.yul\":2707:2778   */\n      tag_104\n      jump\t// in\n    tag_173:\n        /* \"#utility.yul\":2563:2785   */\n      swap3\n      swap2\n      pop\n      pop\n      jump\t// out\n        /* \"#utility.yul\":2791:2895   */\n    tag_105:\n        /* \"#utility.yul\":2836:2843   */\n      0x00\n        /* \"#utility.yul\":2865:2889   */\n      tag_175\n        /* \"#utility.yul\":2883:2888   */\n      dup3\n        /* \"#utility.yul\":2865:2889   */\n      tag_95\n      jump\t// in\n    tag_175:\n        /* \"#utility.yul\":2854:2889   */\n      swap1\n      pop\n        /* \"#utility.yul\":2791:2895   */\n      swap2\n      swap1\n      pop\n      jump\t// out\n        /* \"#utility.yul\":2901:3039   */\n    tag_106:\n        /* \"#utility.yul\":2982:3014   */\n      tag_177\n        /* \"#utility.yul\":3008:3013   */\n      dup2\n        /* \"#utility.yul\":2982:3014   */\n      tag_105\n      jump\t// in\n    tag_177:\n        /* \"#utility.yul\":2975:2980   */\n      dup2\n        /* \"#utility.yul\":2972:3015   */\n      eq\n        /* \"#utility.yul\":2962:3033   */\n      tag_178\n      jumpi\n        /* \"#utility.yul\":3029:3030   */\n      0x00\n        /* \"#utility.yul\":3026:3027   */\n      dup1\n        /* \"#utility.yul\":3019:3031   */\n      revert\n        /* \"#utility.yul\":2962:3033   */\n    tag_178:\n        /* \"#utility.yul\":2901:3039   */\n      pop\n      jump\t// out\n        /* \"#utility.yul\":3045:3200   */\n    tag_107:\n        /* \"#utility.yul\":3099:3104   */\n      0x00\n        /* \"#utility.yul\":3137:3143   */\n      dup2\n        /* \"#utility.yul\":3124:3144   */\n      calldataload\n        /* \"#utility.yul\":3115:3144   */\n      swap1\n      pop\n        /* \"#utility.yul\":3153:3194   */\n      tag_180\n        /* \"#utility.yul\":3188:3193   */\n      dup2\n        /* \"#utility.yul\":3153:3194   */\n      tag_106\n      jump\t// in\n    tag_180:\n        /* \"#utility.yul\":3045:3200   */\n      swap3\n      swap2\n      pop\n      pop\n      jump\t// out\n        /* \"#utility.yul\":3206:3551   */\n    tag_43:\n        /* \"#utility.yul\":3273:3279   */\n      0x00\n        /* \"#utility.yul\":3322:3324   */\n      0x20\n        /* \"#utility.yul\":3310:3319   */\n      dup3\n        /* \"#utility.yul\":3301:3308   */\n      dup5\n        /* \"#utility.yul\":3297:3320   */\n      sub\n        /* \"#utility.yul\":3293:3325   */\n      slt\n        /* \"#utility.yul\":3290:3409   */\n      iszero\n      tag_182\n      jumpi\n        /* \"#utility.yul\":3328:3407   */\n      tag_183\n      tag_93\n      jump\t// in\n    tag_183:\n        /* \"#utility.yul\":3290:3409   */\n    tag_182:\n        /* \"#utility.yul\":3448:3449   */\n      0x00\n        /* \"#utility.yul\":3473:3534   */\n      tag_184\n        /* \"#utility.yul\":3526:3533   */\n      dup5\n        /* \"#utility.yul\":3517:3523   */\n      dup3\n        /* \"#utility.yul\":3506:3515   */\n      dup6\n        /* \"#utility.yul\":3502:3524   */\n      add\n        /* \"#utility.yul\":3473:3534   */\n      tag_107\n      jump\t// in\n    tag_184:\n        /* \"#utility.yul\":3463:3534   */\n      swap2\n      pop\n        /* \"#utility.yul\":3419:3544   */\n      pop\n        /* \"#utility.yul\":3206:3551   */\n      swap3\n      swap2\n      pop\n      pop\n      jump\t// out\n        /* \"#utility.yul\":3557:3674   */\n    tag_108:\n        /* \"#utility.yul\":3666:3667   */\n      0x00\n        /* \"#utility.yul\":3663:3664   */\n      dup1\n        /* \"#utility.yul\":3656:3668   */\n      revert\n        /* \"#utility.yul\":3680:3797   */\n    tag_109:\n        /* \"#utility.yul\":3789:3790   */\n      0x00\n        /* \"#utility.yul\":3786:3787   */\n      dup1\n        /* \"#utility.yul\":3779:3791   */\n      revert\n        /* \"#utility.yul\":3803:3905   */\n    tag_110:\n        /* \"#utility.yul\":3844:3850   */\n      0x00\n        /* \"#utility.yul\":3895:3897   */\n      0x1f\n        /* \"#utility.yul\":3891:3898   */\n      not\n        /* \"#utility.yul\":3886:3888   */\n      0x1f\n        /* \"#utility.yul\":3879:3884   */\n      dup4\n        /* \"#utility.yul\":3875:3889   */\n      add\n        /* \"#utility.yul\":3871:3899   */\n      and\n        /* \"#utility.yul\":3861:3899   */\n      swap1\n      pop\n        /* \"#utility.yul\":3803:3905   */\n      swap2\n      swap1\n      pop\n      jump\t// out\n        /* \"#utility.yul\":3911:4091   */\n    tag_111:\n        /* \"#utility.yul\":3959:4036   */\n      0x4e487b7100000000000000000000000000000000000000000000000000000000\n        /* \"#utility.yul\":3956:3957   */\n      0x00\n        /* \"#utility.yul\":3949:4037   */\n      mstore\n        /* \"#utility.yul\":4056:4060   */\n      0x41\n        /* \"#utility.yul\":4053:4054   */\n      0x04\n        /* \"#utility.yul\":4046:4061   */\n      mstore\n        /* \"#utility.yul\":4080:4084   */\n      0x24\n        /* \"#utility.yul\":4077:4078   */\n      0x00\n        /* \"#utility.yul\":4070:4085   */\n      revert\n        /* \"#utility.yul\":4097:4378   */\n    tag_112:\n        /* \"#utility.yul\":4180:4207   */\n      tag_190\n        /* \"#utility.yul\":4202:4206   */\n      dup3\n        /* \"#utility.yul\":4180:4207   */\n      tag_110\n      jump\t// in\n    tag_190:\n        /* \"#utility.yul\":4172:4178   */\n      dup2\n        /* \"#utility.yul\":4168:4208   */\n      add\n        /* \"#utility.yul\":4310:4316   */\n      dup2\n        /* \"#utility.yul\":4298:4308   */\n      dup2\n        /* \"#utility.yul\":4295:4317   */\n      lt\n        /* \"#utility.yul\":4274:4292   */\n      0xffffffffffffffff\n        /* \"#utility.yul\":4262:4272   */\n      dup3\n        /* \"#utility.yul\":4259:4293   */\n      gt\n        /* \"#utility.yul\":4256:4318   */\n      or\n        /* \"#utility.yul\":4253:4341   */\n      iszero\n      tag_191\n      jumpi\n        /* \"#utility.yul\":4321:4339   */\n      tag_192\n      tag_111\n      jump\t// in\n    tag_192:\n        /* \"#utility.yul\":4253:4341   */\n    tag_191:\n        /* \"#utility.yul\":4361:4371   */\n      dup1\n        /* \"#utility.yul\":4357:4359   */\n      0x40\n        /* \"#utility.yul\":4350:4372   */\n      mstore\n        /* \"#utility.yul\":4140:4378   */\n      pop\n        /* \"#utility.yul\":4097:4378   */\n      pop\n      pop\n      jump\t// out\n        /* \"#utility.yul\":4384:4513   */\n    tag_113:\n        /* \"#utility.yul\":4418:4424   */\n      0x00\n        /* \"#utility.yul\":4445:4465   */\n      tag_194\n      tag_92\n      jump\t// in\n    tag_194:\n        /* \"#utility.yul\":4435:4465   */\n      swap1\n      pop\n        /* \"#utility.yul\":4474:4507   */\n      tag_195\n        /* \"#utility.yul\":4502:4506   */\n      dup3\n        /* \"#utility.yul\":4494:4500   */\n      dup3\n        /* \"#utility.yul\":4474:4507   */\n      tag_112\n      jump\t// in\n    tag_195:\n        /* \"#utility.yul\":4384:4513   */\n      swap2\n      swap1\n      pop\n      jump\t// out\n        /* \"#utility.yul\":4519:4826   */\n    tag_114:\n        /* \"#utility.yul\":4580:4584   */\n      0x00\n        /* \"#utility.yul\":4670:4688   */\n      0xffffffffffffffff\n        /* \"#utility.yul\":4662:4668   */\n      dup3\n        /* \"#utility.yul\":4659:4689   */\n      gt\n        /* \"#utility.yul\":4656:4712   */\n      iszero\n      tag_197\n      jumpi\n        /* \"#utility.yul\":4692:4710   */\n      tag_198\n      tag_111\n      jump\t// in\n    tag_198:\n        /* \"#utility.yul\":4656:4712   */\n    tag_197:\n        /* \"#utility.yul\":4730:4759   */\n      tag_199\n        /* \"#utility.yul\":4752:4758   */\n      dup3\n        /* \"#utility.yul\":4730:4759   */\n      tag_110\n      jump\t// in\n    tag_199:\n        /* \"#utility.yul\":4722:4759   */\n      swap1\n      pop\n        /* \"#utility.yul\":4814:4818   */\n      0x20\n        /* \"#utility.yul\":4808:4812   */\n      dup2\n        /* \"#utility.yul\":4804:4819   */\n      add\n        /* \"#utility.yul\":4796:4819   */\n      swap1\n      pop\n        /* \"#utility.yul\":4519:4826   */\n      swap2\n      swap1\n      pop\n      jump\t// out\n        /* \"#utility.yul\":4832:4980   */\n    tag_115:\n        /* \"#utility.yul\":4930:4936   */\n      dup3\n        /* \"#utility.yul\":4925:4928   */\n      dup2\n        /* \"#utility.yul\":4920:4923   */\n      dup4\n        /* \"#utility.yul\":4907:4937   */\n      calldatacopy\n        /* \"#utility.yul\":4971:4972   */\n      0x00\n        /* \"#utility.yul\":4962:4968   */\n      dup4\n        /* \"#utility.yul\":4957:4960   */\n      dup4\n        /* \"#utility.yul\":4953:4969   */\n      add\n        /* \"#utility.yul\":4946:4973   */\n      mstore\n        /* \"#utility.yul\":4832:4980   */\n      pop\n      pop\n      pop\n      jump\t// out\n        /* \"#utility.yul\":4986:5409   */\n    tag_116:\n        /* \"#utility.yul\":5063:5068   */\n      0x00\n        /* \"#utility.yul\":5088:5153   */\n      tag_202\n        /* \"#utility.yul\":5104:5152   */\n      tag_203\n        /* \"#utility.yul\":5145:5151   */\n      dup5\n        /* \"#utility.yul\":5104:5152   */\n      tag_114\n      jump\t// in\n    tag_203:\n        /* \"#utility.yul\":5088:5153   */\n      tag_113\n      jump\t// in\n    tag_202:\n        /* \"#utility.yul\":5079:5153   */\n      swap1\n      pop\n        /* \"#utility.yul\":5176:5182   */\n      dup3\n        /* \"#utility.yul\":5169:5174   */\n      dup2\n        /* \"#utility.yul\":5162:5183   */\n      mstore\n        /* \"#utility.yul\":5214:5218   */\n      0x20\n        /* \"#utility.yul\":5207:5212   */\n      dup2\n        /* \"#utility.yul\":5203:5219   */\n      add\n        /* \"#utility.yul\":5252:5255   */\n      dup5\n        /* \"#utility.yul\":5243:5249   */\n      dup5\n        /* \"#utility.yul\":5238:5241   */\n      dup5\n        /* \"#utility.yul\":5234:5250   */\n      add\n        /* \"#utility.yul\":5231:5256   */\n      gt\n        /* \"#utility.yul\":5228:5340   */\n      iszero\n      tag_204\n      jumpi\n        /* \"#utility.yul\":5259:5338   */\n      tag_205\n      tag_109\n      jump\t// in\n    tag_205:\n        /* \"#utility.yul\":5228:5340   */\n    tag_204:\n        /* \"#utility.yul\":5349:5403   */\n      tag_206\n        /* \"#utility.yul\":5396:5402   */\n      dup5\n        /* \"#utility.yul\":5391:5394   */\n      dup3\n        /* \"#utility.yul\":5386:5389   */\n      dup6\n        /* \"#utility.yul\":5349:5403   */\n      tag_115\n      jump\t// in\n    tag_206:\n        /* \"#utility.yul\":5069:5409   */\n      pop\n        /* \"#utility.yul\":4986:5409   */\n      swap4\n      swap3\n      pop\n      pop\n      pop\n      jump\t// out\n        /* \"#utility.yul\":5428:5766   */\n    tag_117:\n        /* \"#utility.yul\":5483:5488   */\n      0x00\n        /* \"#utility.yul\":5532:5535   */\n      dup3\n        /* \"#utility.yul\":5525:5529   */\n      0x1f\n        /* \"#utility.yul\":5517:5523   */\n      dup4\n        /* \"#utility.yul\":5513:5530   */\n      add\n        /* \"#utility.yul\":5509:5536   */\n      slt\n        /* \"#utility.yul\":5499:5621   */\n      tag_208\n      jumpi\n        /* \"#utility.yul\":5540:5619   */\n      tag_209\n      tag_108\n      jump\t// in\n    tag_209:\n        /* \"#utility.yul\":5499:5621   */\n    tag_208:\n        /* \"#utility.yul\":5657:5663   */\n      dup2\n        /* \"#utility.yul\":5644:5664   */\n      calldataload\n        /* \"#utility.yul\":5682:5760   */\n      tag_210\n        /* \"#utility.yul\":5756:5759   */\n      dup5\n        /* \"#utility.yul\":5748:5754   */\n      dup3\n        /* \"#utility.yul\":5741:5745   */\n      0x20\n        /* \"#utility.yul\":5733:5739   */\n      dup7\n        /* \"#utility.yul\":5729:5746   */\n      add\n        /* \"#utility.yul\":5682:5760   */\n      tag_116\n      jump\t// in\n    tag_210:\n        /* \"#utility.yul\":5673:5760   */\n      swap2\n      pop\n        /* \"#utility.yul\":5489:5766   */\n      pop\n        /* \"#utility.yul\":5428:5766   */\n      swap3\n      swap2\n      pop\n      pop\n      jump\t// out\n        /* \"#utility.yul\":5772:6585   */\n    tag_48:\n        /* \"#utility.yul\":5866:5872   */\n      0x00\n        /* \"#utility.yul\":5874:5880   */\n      dup1\n        /* \"#utility.yul\":5882:5888   */\n      0x00\n        /* \"#utility.yul\":5931:5933   */\n      0x60\n        /* \"#utility.yul\":5919:5928   */\n      dup5\n        /* \"#utility.yul\":5910:5917   */\n      dup7\n        /* \"#utility.yul\":5906:5929   */\n      sub\n        /* \"#utility.yul\":5902:5934   */\n      slt\n        /* \"#utility.yul\":5899:6018   */\n      iszero\n      tag_212\n      jumpi\n        /* \"#utility.yul\":5937:6016   */\n      tag_213\n      tag_93\n      jump\t// in\n    tag_213:\n        /* \"#utility.yul\":5899:6018   */\n    tag_212:\n        /* \"#utility.yul\":6057:6058   */\n      0x00\n        /* \"#utility.yul\":6082:6143   */\n      tag_214\n        /* \"#utility.yul\":6135:6142   */\n      dup7\n        /* \"#utility.yul\":6126:6132   */\n      dup3\n        /* \"#utility.yul\":6115:6124   */\n      dup8\n        /* \"#utility.yul\":6111:6133   */\n      add\n        /* \"#utility.yul\":6082:6143   */\n      tag_107\n      jump\t// in\n    tag_214:\n        /* \"#utility.yul\":6072:6143   */\n      swap4\n      pop\n        /* \"#utility.yul\":6028:6153   */\n      pop\n        /* \"#utility.yul\":6192:6194   */\n      0x20\n        /* \"#utility.yul\":6218:6271   */\n      tag_215\n        /* \"#utility.yul\":6263:6270   */\n      dup7\n        /* \"#utility.yul\":6254:6260   */\n      dup3\n        /* \"#utility.yul\":6243:6252   */\n      dup8\n        /* \"#utility.yul\":6239:6261   */\n      add\n        /* \"#utility.yul\":6218:6271   */\n      tag_103\n      jump\t// in\n    tag_215:\n        /* \"#utility.yul\":6208:6271   */\n      swap3\n      pop\n        /* \"#utility.yul\":6163:6281   */\n      pop\n        /* \"#utility.yul\":6348:6350   */\n      0x40\n        /* \"#utility.yul\":6337:6346   */\n      dup5\n        /* \"#utility.yul\":6333:6351   */\n      add\n        /* \"#utility.yul\":6320:6352   */\n      calldataload\n        /* \"#utility.yul\":6379:6397   */\n      0xffffffffffffffff\n        /* \"#utility.yul\":6371:6377   */\n      dup2\n        /* \"#utility.yul\":6368:6398   */\n      gt\n        /* \"#utility.yul\":6365:6482   */\n      iszero\n      tag_216\n      jumpi\n        /* \"#utility.yul\":6401:6480   */\n      tag_217\n      tag_94\n      jump\t// in\n    tag_217:\n        /* \"#utility.yul\":6365:6482   */\n    tag_216:\n        /* \"#utility.yul\":6506:6568   */\n      tag_218\n        /* \"#utility.yul\":6560:6567   */\n      dup7\n        /* \"#utility.yul\":6551:6557   */\n      dup3\n        /* \"#utility.yul\":6540:6549   */\n      dup8\n        /* \"#utility.yul\":6536:6558   */\n      add\n        /* \"#utility.yul\":6506:6568   */\n      tag_117\n      jump\t// in\n    tag_218:\n        /* \"#utility.yul\":6496:6568   */\n      swap2\n      pop\n        /* \"#utility.yul\":6291:6578   */\n      pop\n        /* \"#utility.yul\":5772:6585   */\n      swap3\n      pop\n      swap3\n      pop\n      swap3\n      jump\t// out\n        /* \"#utility.yul\":6591:6689   */\n    tag_118:\n        /* \"#utility.yul\":6642:6648   */\n      0x00\n        /* \"#utility.yul\":6676:6681   */\n      dup2\n        /* \"#utility.yul\":6670:6682   */\n      mload\n        /* \"#utility.yul\":6660:6682   */\n      swap1\n      pop\n        /* \"#utility.yul\":6591:6689   */\n      swap2\n      swap1\n      pop\n      jump\t// out\n        /* \"#utility.yul\":6695:6863   */\n    tag_119:\n        /* \"#utility.yul\":6778:6789   */\n      0x00\n        /* \"#utility.yul\":6812:6818   */\n      dup3\n        /* \"#utility.yul\":6807:6810   */\n      dup3\n        /* \"#utility.yul\":6800:6819   */\n      mstore\n        /* \"#utility.yul\":6852:6856   */\n      0x20\n        /* \"#utility.yul\":6847:6850   */\n      dup3\n        /* \"#utility.yul\":6843:6857   */\n      add\n        /* \"#utility.yul\":6828:6857   */\n      swap1\n      pop\n        /* \"#utility.yul\":6695:6863   */\n      swap3\n      swap2\n      pop\n      pop\n      jump\t// out\n        /* \"#utility.yul\":6869:7008   */\n    tag_120:\n        /* \"#utility.yul\":6958:6964   */\n      dup3\n        /* \"#utility.yul\":6953:6956   */\n      dup2\n        /* \"#utility.yul\":6948:6951   */\n      dup4\n        /* \"#utility.yul\":6942:6965   */\n      mcopy\n        /* \"#utility.yul\":6999:7000   */\n      0x00\n        /* \"#utility.yul\":6990:6996   */\n      dup4\n        /* \"#utility.yul\":6985:6988   */\n      dup4\n        /* \"#utility.yul\":6981:6997   */\n      add\n        /* \"#utility.yul\":6974:7001   */\n      mstore\n        /* \"#utility.yul\":6869:7008   */\n      pop\n      pop\n      pop\n      jump\t// out\n        /* \"#utility.yul\":7014:7387   */\n    tag_121:\n        /* \"#utility.yul\":7100:7103   */\n      0x00\n        /* \"#utility.yul\":7128:7166   */\n      tag_223\n        /* \"#utility.yul\":7160:7165   */\n      dup3\n        /* \"#utility.yul\":7128:7166   */\n      tag_118\n      jump\t// in\n    tag_223:\n        /* \"#utility.yul\":7182:7252   */\n      tag_224\n        /* \"#utility.yul\":7245:7251   */\n      dup2\n        /* \"#utility.yul\":7240:7243   */\n      dup6\n        /* \"#utility.yul\":7182:7252   */\n      tag_119\n      jump\t// in\n    tag_224:\n        /* \"#utility.yul\":7175:7252   */\n      swap4\n      pop\n        /* \"#utility.yul\":7261:7326   */\n      tag_225\n        /* \"#utility.yul\":7319:7325   */\n      dup2\n        /* \"#utility.yul\":7314:7317   */\n      dup6\n        /* \"#utility.yul\":7307:7311   */\n      0x20\n        /* \"#utility.yul\":7300:7305   */\n      dup7\n        /* \"#utility.yul\":7296:7312   */\n      add\n        /* \"#utility.yul\":7261:7326   */\n      tag_120\n      jump\t// in\n    tag_225:\n        /* \"#utility.yul\":7351:7380   */\n      tag_226\n        /* \"#utility.yul\":7373:7379   */\n      dup2\n        /* \"#utility.yul\":7351:7380   */\n      tag_110\n      jump\t// in\n    tag_226:\n        /* \"#utility.yul\":7346:7349   */\n      dup5\n        /* \"#utility.yul\":7342:7381   */\n      add\n        /* \"#utility.yul\":7335:7381   */\n      swap2\n      pop\n        /* \"#utility.yul\":7104:7387   */\n      pop\n        /* \"#utility.yul\":7014:7387   */\n      swap3\n      swap2\n      pop\n      pop\n      jump\t// out\n        /* \"#utility.yul\":7393:7702   */\n    tag_51:\n        /* \"#utility.yul\":7504:7508   */\n      0x00\n        /* \"#utility.yul\":7542:7544   */\n      0x20\n        /* \"#utility.yul\":7531:7540   */\n      dup3\n        /* \"#utility.yul\":7527:7545   */\n      add\n        /* \"#utility.yul\":7519:7545   */\n      swap1\n      pop\n        /* \"#utility.yul\":7591:7600   */\n      dup2\n        /* \"#utility.yul\":7585:7589   */\n      dup2\n        /* \"#utility.yul\":7581:7601   */\n      sub\n        /* \"#utility.yul\":7577:7578   */\n      0x00\n        /* \"#utility.yul\":7566:7575   */\n      dup4\n        /* \"#utility.yul\":7562:7579   */\n      add\n        /* \"#utility.yul\":7555:7602   */\n      mstore\n        /* \"#utility.yul\":7619:7695   */\n      tag_228\n        /* \"#utility.yul\":7690:7694   */\n      dup2\n        /* \"#utility.yul\":7681:7687   */\n      dup5\n        /* \"#utility.yul\":7619:7695   */\n      tag_121\n      jump\t// in\n    tag_228:\n        /* \"#utility.yul\":7611:7695   */\n      swap1\n      pop\n        /* \"#utility.yul\":7393:7702   */\n      swap3\n      swap2\n      pop\n      pop\n      jump\t// out\n        /* \"#utility.yul\":7708:7877   */\n    tag_122:\n        /* \"#utility.yul\":7792:7803   */\n      0x00\n        /* \"#utility.yul\":7826:7832   */\n      dup3\n        /* \"#utility.yul\":7821:7824   */\n      dup3\n        /* \"#utility.yul\":7814:7833   */\n      mstore\n        /* \"#utility.yul\":7866:7870   */\n      0x20\n        /* \"#utility.yul\":7861:7864   */\n      dup3\n        /* \"#utility.yul\":7857:7871   */\n      add\n        /* \"#utility.yul\":7842:7871   */\n      swap1\n      pop\n        /* \"#utility.yul\":7708:7877   */\n      swap3\n      swap2\n      pop\n      pop\n      jump\t// out\n        /* \"#utility.yul\":7883:8065   */\n    tag_123:\n        /* \"#utility.yul\":8023:8057   */\n      0x796f757220617265206e6f7420746865206f776e65722c2061626f7274696e67\n        /* \"#utility.yul\":8019:8020   */\n      0x00\n        /* \"#utility.yul\":8011:8017   */\n      dup3\n        /* \"#utility.yul\":8007:8021   */\n      add\n        /* \"#utility.yul\":8000:8058   */\n      mstore\n        /* \"#utility.yul\":7883:8065   */\n      pop\n      jump\t// out\n        /* \"#utility.yul\":8071:8437   */\n    tag_124:\n        /* \"#utility.yul\":8213:8216   */\n      0x00\n        /* \"#utility.yul\":8234:8301   */\n      tag_232\n        /* \"#utility.yul\":8298:8300   */\n      0x20\n        /* \"#utility.yul\":8293:8296   */\n      dup4\n        /* \"#utility.yul\":8234:8301   */\n      tag_122\n      jump\t// in\n    tag_232:\n        /* \"#utility.yul\":8227:8301   */\n      swap2\n      pop\n        /* \"#utility.yul\":8310:8403   */\n      tag_233\n        /* \"#utility.yul\":8399:8402   */\n      dup3\n        /* \"#utility.yul\":8310:8403   */\n      tag_123\n      jump\t// in\n    tag_233:\n        /* \"#utility.yul\":8428:8430   */\n      0x20\n        /* \"#utility.yul\":8423:8426   */\n      dup3\n        /* \"#utility.yul\":8419:8431   */\n      add\n        /* \"#utility.yul\":8412:8431   */\n      swap1\n      pop\n        /* \"#utility.yul\":8071:8437   */\n      swap2\n      swap1\n      pop\n      jump\t// out\n        /* \"#utility.yul\":8443:8862   */\n    tag_60:\n        /* \"#utility.yul\":8609:8613   */\n      0x00\n        /* \"#utility.yul\":8647:8649   */\n      0x20\n        /* \"#utility.yul\":8636:8645   */\n      dup3\n        /* \"#utility.yul\":8632:8650   */\n      add\n        /* \"#utility.yul\":8624:8650   */\n      swap1\n      pop\n        /* \"#utility.yul\":8696:8705   */\n      dup2\n        /* \"#utility.yul\":8690:8694   */\n      dup2\n        /* \"#utility.yul\":8686:8706   */\n      sub\n        /* \"#utility.yul\":8682:8683   */\n      0x00\n        /* \"#utility.yul\":8671:8680   */\n      dup4\n        /* \"#utility.yul\":8667:8684   */\n      add\n        /* \"#utility.yul\":8660:8707   */\n      mstore\n        /* \"#utility.yul\":8724:8855   */\n      tag_235\n        /* \"#utility.yul\":8850:8854   */\n      dup2\n        /* \"#utility.yul\":8724:8855   */\n      tag_124\n      jump\t// in\n    tag_235:\n        /* \"#utility.yul\":8716:8855   */\n      swap1\n      pop\n        /* \"#utility.yul\":8443:8862   */\n      swap2\n      swap1\n      pop\n      jump\t// out\n        /* \"#utility.yul\":8868:9049   */\n    tag_125:\n        /* \"#utility.yul\":9008:9041   */\n      0x596f7520617265206e6f7420746865206f776e65722c2061626f7274696e6700\n        /* \"#utility.yul\":9004:9005   */\n      0x00\n        /* \"#utility.yul\":8996:9002   */\n      dup3\n        /* \"#utility.yul\":8992:9006   */\n      add\n        /* \"#utility.yul\":8985:9042   */\n      mstore\n        /* \"#utility.yul\":8868:9049   */\n      pop\n      jump\t// out\n        /* \"#utility.yul\":9055:9421   */\n    tag_126:\n        /* \"#utility.yul\":9197:9200   */\n      0x00\n        /* \"#utility.yul\":9218:9285   */\n      tag_238\n        /* \"#utility.yul\":9282:9284   */\n      0x1f\n        /* \"#utility.yul\":9277:9280   */\n      dup4\n        /* \"#utility.yul\":9218:9285   */\n      tag_122\n      jump\t// in\n    tag_238:\n        /* \"#utility.yul\":9211:9285   */\n      swap2\n      pop\n        /* \"#utility.yul\":9294:9387   */\n      tag_239\n        /* \"#utility.yul\":9383:9386   */\n      dup3\n        /* \"#utility.yul\":9294:9387   */\n      tag_125\n      jump\t// in\n    tag_239:\n        /* \"#utility.yul\":9412:9414   */\n      0x20\n        /* \"#utility.yul\":9407:9410   */\n      dup3\n        /* \"#utility.yul\":9403:9415   */\n      add\n        /* \"#utility.yul\":9396:9415   */\n      swap1\n      pop\n        /* \"#utility.yul\":9055:9421   */\n      swap2\n      swap1\n      pop\n      jump\t// out\n        /* \"#utility.yul\":9427:9846   */\n    tag_64:\n        /* \"#utility.yul\":9593:9597   */\n      0x00\n        /* \"#utility.yul\":9631:9633   */\n      0x20\n        /* \"#utility.yul\":9620:9629   */\n      dup3\n        /* \"#utility.yul\":9616:9634   */\n      add\n        /* \"#utility.yul\":9608:9634   */\n      swap1\n      pop\n        /* \"#utility.yul\":9680:9689   */\n      dup2\n        /* \"#utility.yul\":9674:9678   */\n      dup2\n        /* \"#utility.yul\":9670:9690   */\n      sub\n        /* \"#utility.yul\":9666:9667   */\n      0x00\n        /* \"#utility.yul\":9655:9664   */\n      dup4\n        /* \"#utility.yul\":9651:9668   */\n      add\n        /* \"#utility.yul\":9644:9691   */\n      mstore\n        /* \"#utility.yul\":9708:9839   */\n      tag_241\n        /* \"#utility.yul\":9834:9838   */\n      dup2\n        /* \"#utility.yul\":9708:9839   */\n      tag_126\n      jump\t// in\n    tag_241:\n        /* \"#utility.yul\":9700:9839   */\n      swap1\n      pop\n        /* \"#utility.yul\":9427:9846   */\n      swap2\n      swap1\n      pop\n      jump\t// out\n        /* \"#utility.yul\":9852:10031   */\n    tag_127:\n        /* \"#utility.yul\":9992:10023   */\n      0x596f7520617265206e6f20677561726469616e2c2061626f7274696e67000000\n        /* \"#utility.yul\":9988:9989   */\n      0x00\n        /* \"#utility.yul\":9980:9986   */\n      dup3\n        /* \"#utility.yul\":9976:9990   */\n      add\n        /* \"#utility.yul\":9969:10024   */\n      mstore\n        /* \"#utility.yul\":9852:10031   */\n      pop\n      jump\t// out\n        /* \"#utility.yul\":10037:10403   */\n    tag_128:\n        /* \"#utility.yul\":10179:10182   */\n      0x00\n        /* \"#utility.yul\":10200:10267   */\n      tag_244\n        /* \"#utility.yul\":10264:10266   */\n      0x1d\n        /* \"#utility.yul\":10259:10262   */\n      dup4\n        /* \"#utility.yul\":10200:10267   */\n      tag_122\n      jump\t// in\n    tag_244:\n        /* \"#utility.yul\":10193:10267   */\n      swap2\n      pop\n        /* \"#utility.yul\":10276:10369   */\n      tag_245\n        /* \"#utility.yul\":10365:10368   */\n      dup3\n        /* \"#utility.yul\":10276:10369   */\n      tag_127\n      jump\t// in\n    tag_245:\n        /* \"#utility.yul\":10394:10396   */\n      0x20\n        /* \"#utility.yul\":10389:10392   */\n      dup3\n        /* \"#utility.yul\":10385:10397   */\n      add\n        /* \"#utility.yul\":10378:10397   */\n      swap1\n      pop\n        /* \"#utility.yul\":10037:10403   */\n      swap2\n      swap1\n      pop\n      jump\t// out\n        /* \"#utility.yul\":10409:10828   */\n    tag_68:\n        /* \"#utility.yul\":10575:10579   */\n      0x00\n        /* \"#utility.yul\":10613:10615   */\n      0x20\n        /* \"#utility.yul\":10602:10611   */\n      dup3\n        /* \"#utility.yul\":10598:10616   */\n      add\n        /* \"#utility.yul\":10590:10616   */\n      swap1\n      pop\n        /* \"#utility.yul\":10662:10671   */\n      dup2\n        /* \"#utility.yul\":10656:10660   */\n      dup2\n        /* \"#utility.yul\":10652:10672   */\n      sub\n        /* \"#utility.yul\":10648:10649   */\n      0x00\n        /* \"#utility.yul\":10637:10646   */\n      dup4\n        /* \"#utility.yul\":10633:10650   */\n      add\n        /* \"#utility.yul\":10626:10673   */\n      mstore\n        /* \"#utility.yul\":10690:10821   */\n      tag_247\n        /* \"#utility.yul\":10816:10820   */\n      dup2\n        /* \"#utility.yul\":10690:10821   */\n      tag_128\n      jump\t// in\n    tag_247:\n        /* \"#utility.yul\":10682:10821   */\n      swap1\n      pop\n        /* \"#utility.yul\":10409:10828   */\n      swap2\n      swap1\n      pop\n      jump\t// out\n        /* \"#utility.yul\":10834:11014   */\n    tag_129:\n        /* \"#utility.yul\":10882:10959   */\n      0x4e487b7100000000000000000000000000000000000000000000000000000000\n        /* \"#utility.yul\":10879:10880   */\n      0x00\n        /* \"#utility.yul\":10872:10960   */\n      mstore\n        /* \"#utility.yul\":10979:10983   */\n      0x11\n        /* \"#utility.yul\":10976:10977   */\n      0x04\n        /* \"#utility.yul\":10969:10984   */\n      mstore\n        /* \"#utility.yul\":11003:11007   */\n      0x24\n        /* \"#utility.yul\":11000:11001   */\n      0x00\n        /* \"#utility.yul\":10993:11008   */\n      revert\n        /* \"#utility.yul\":11020:11253   */\n    tag_71:\n        /* \"#utility.yul\":11059:11062   */\n      0x00\n        /* \"#utility.yul\":11082:11106   */\n      tag_250\n        /* \"#utility.yul\":11100:11105   */\n      dup3\n        /* \"#utility.yul\":11082:11106   */\n      tag_101\n      jump\t// in\n    tag_250:\n        /* \"#utility.yul\":11073:11106   */\n      swap2\n      pop\n        /* \"#utility.yul\":11128:11194   */\n      0xffffffffffffffffffffffffffffffffffffffffffffffffffffffffffffffff\n        /* \"#utility.yul\":11121:11126   */\n      dup3\n        /* \"#utility.yul\":11118:11195   */\n      sub\n        /* \"#utility.yul\":11115:11218   */\n      tag_251\n      jumpi\n        /* \"#utility.yul\":11198:11216   */\n      tag_252\n      tag_129\n      jump\t// in\n    tag_252:\n        /* \"#utility.yul\":11115:11218   */\n    tag_251:\n        /* \"#utility.yul\":11245:11246   */\n      0x01\n        /* \"#utility.yul\":11238:11243   */\n      dup3\n        /* \"#utility.yul\":11234:11247   */\n      add\n        /* \"#utility.yul\":11227:11247   */\n      swap1\n      pop\n        /* \"#utility.yul\":11020:11253   */\n      swap2\n      swap1\n      pop\n      jump\t// out\n        /* \"#utility.yul\":11259:11500   */\n    tag_130:\n        /* \"#utility.yul\":11399:11433   */\n      0x596f7520617265206e6f7420616c6c6f77656420746f2073656e6420616e7920\n        /* \"#utility.yul\":11395:11396   */\n      0x00\n        /* \"#utility.yul\":11387:11393   */\n      dup3\n        /* \"#utility.yul\":11383:11397   */\n      add\n        /* \"#utility.yul\":11376:11434   */\n      mstore\n        /* \"#utility.yul\":11468:11492   */\n      0x7472616e73616374696f6e732c2061626f7274696e6700000000000000000000\n        /* \"#utility.yul\":11463:11465   */\n      0x20\n        /* \"#utility.yul\":11455:11461   */\n      dup3\n        /* \"#utility.yul\":11451:11466   */\n      add\n        /* \"#utility.yul\":11444:11493   */\n      mstore\n        /* \"#utility.yul\":11259:11500   */\n      pop\n      jump\t// out\n        /* \"#utility.yul\":11506:11872   */\n    tag_131:\n        /* \"#utility.yul\":11648:11651   */\n      0x00\n        /* \"#utility.yul\":11669:11736   */\n      tag_255\n        /* \"#utility.yul\":11733:11735   */\n      0x36\n        /* \"#utility.yul\":11728:11731   */\n      dup4\n        /* \"#utility.yul\":11669:11736   */\n      tag_122\n      jump\t// in\n    tag_255:\n        /* \"#utility.yul\":11662:11736   */\n      swap2\n      pop\n        /* \"#utility.yul\":11745:11838   */\n      tag_256\n        /* \"#utility.yul\":11834:11837   */\n      dup3\n        /* \"#utility.yul\":11745:11838   */\n      tag_130\n      jump\t// in\n    tag_256:\n        /* \"#utility.yul\":11863:11865   */\n      0x40\n        /* \"#utility.yul\":11858:11861   */\n      dup3\n        /* \"#utility.yul\":11854:11866   */\n      add\n        /* \"#utility.yul\":11847:11866   */\n      swap1\n      pop\n        /* \"#utility.yul\":11506:11872   */\n      swap2\n      swap1\n      pop\n      jump\t// out\n        /* \"#utility.yul\":11878:12297   */\n    tag_78:\n        /* \"#utility.yul\":12044:12048   */\n      0x00\n        /* \"#utility.yul\":12082:12084   */\n      0x20\n        /* \"#utility.yul\":12071:12080   */\n      dup3\n        /* \"#utility.yul\":12067:12085   */\n      add\n        /* \"#utility.yul\":12059:12085   */\n      swap1\n      pop\n        /* \"#utility.yul\":12131:12140   */\n      dup2\n        /* \"#utility.yul\":12125:12129   */\n      dup2\n        /* \"#utility.yul\":12121:12141   */\n      sub\n        /* \"#utility.yul\":12117:12118   */\n      0x00\n        /* \"#utility.yul\":12106:12115   */\n      dup4\n        /* \"#utility.yul\":12102:12119   */\n      add\n        /* \"#utility.yul\":12095:12142   */\n      mstore\n        /* \"#utility.yul\":12159:12290   */\n      tag_258\n        /* \"#utility.yul\":12285:12289   */\n      dup2\n        /* \"#utility.yul\":12159:12290   */\n      tag_131\n      jump\t// in\n    tag_258:\n        /* \"#utility.yul\":12151:12290   */\n      swap1\n      pop\n        /* \"#utility.yul\":11878:12297   */\n      swap2\n      swap1\n      pop\n      jump\t// out\n        /* \"#utility.yul\":12303:12551   */\n    tag_132:\n        /* \"#utility.yul\":12443:12477   */\n      0x596f752061726520747279696e6720746f2073656e64206d6f7265207468616e\n        /* \"#utility.yul\":12439:12440   */\n      0x00\n        /* \"#utility.yul\":12431:12437   */\n      dup3\n        /* \"#utility.yul\":12427:12441   */\n      add\n        /* \"#utility.yul\":12420:12478   */\n      mstore\n        /* \"#utility.yul\":12512:12543   */\n      0x20796f752061726520616c6c6f77656420746f2c2061626f7274696e67000000\n        /* \"#utility.yul\":12507:12509   */\n      0x20\n        /* \"#utility.yul\":12499:12505   */\n      dup3\n        /* \"#utility.yul\":12495:12510   */\n      add\n        /* \"#utility.yul\":12488:12544   */\n      mstore\n        /* \"#utility.yul\":12303:12551   */\n      pop\n      jump\t// out\n        /* \"#utility.yul\":12557:12923   */\n    tag_133:\n        /* \"#utility.yul\":12699:12702   */\n      0x00\n        /* \"#utility.yul\":12720:12787   */\n      tag_261\n        /* \"#utility.yul\":12784:12786   */\n      0x3d\n        /* \"#utility.yul\":12779:12782   */\n      dup4\n        /* \"#utility.yul\":12720:12787   */\n      tag_122\n      jump\t// in\n    tag_261:\n        /* \"#utility.yul\":12713:12787   */\n      swap2\n      pop\n        /* \"#utility.yul\":12796:12889   */\n      tag_262\n        /* \"#utility.yul\":12885:12888   */\n      dup3\n        /* \"#utility.yul\":12796:12889   */\n      tag_132\n      jump\t// in\n    tag_262:\n        /* \"#utility.yul\":12914:12916   */\n      0x40\n        /* \"#utility.yul\":12909:12912   */\n      dup3\n        /* \"#utility.yul\":12905:12917   */\n      add\n        /* \"#utility.yul\":12898:12917   */\n      swap1\n      pop\n        /* \"#utility.yul\":12557:12923   */\n      swap2\n      swap1\n      pop\n      jump\t// out\n        /* \"#utility.yul\":12929:13348   */\n    tag_81:\n        /* \"#utility.yul\":13095:13099   */\n      0x00\n        /* \"#utility.yul\":13133:13135   */\n      0x20\n        /* \"#utility.yul\":13122:13131   */\n      dup3\n        /* \"#utility.yul\":13118:13136   */\n      add\n        /* \"#utility.yul\":13110:13136   */\n      swap1\n      pop\n        /* \"#utility.yul\":13182:13191   */\n      dup2\n        /* \"#utility.yul\":13176:13180   */\n      dup2\n        /* \"#utility.yul\":13172:13192   */\n      sub\n        /* \"#utility.yul\":13168:13169   */\n      0x00\n        /* \"#utility.yul\":13157:13166   */\n      dup4\n        /* \"#utility.yul\":13153:13170   */\n      add\n        /* \"#utility.yul\":13146:13193   */\n      mstore\n        /* \"#utility.yul\":13210:13341   */\n      tag_264\n        /* \"#utility.yul\":13336:13340   */\n      dup2\n        /* \"#utility.yul\":13210:13341   */\n      tag_133\n      jump\t// in\n    tag_264:\n        /* \"#utility.yul\":13202:13341   */\n      swap1\n      pop\n        /* \"#utility.yul\":12929:13348   */\n      swap2\n      swap1\n      pop\n      jump\t// out\n        /* \"#utility.yul\":13354:13548   */\n    tag_83:\n        /* \"#utility.yul\":13394:13398   */\n      0x00\n        /* \"#utility.yul\":13414:13434   */\n      tag_266\n        /* \"#utility.yul\":13432:13433   */\n      dup3\n        /* \"#utility.yul\":13414:13434   */\n      tag_101\n      jump\t// in\n    tag_266:\n        /* \"#utility.yul\":13409:13434   */\n      swap2\n      pop\n        /* \"#utility.yul\":13448:13468   */\n      tag_267\n        /* \"#utility.yul\":13466:13467   */\n      dup4\n        /* \"#utility.yul\":13448:13468   */\n      tag_101\n      jump\t// in\n    tag_267:\n        /* \"#utility.yul\":13443:13468   */\n      swap3\n      pop\n        /* \"#utility.yul\":13492:13493   */\n      dup3\n        /* \"#utility.yul\":13489:13490   */\n      dup3\n        /* \"#utility.yul\":13485:13494   */\n      sub\n        /* \"#utility.yul\":13477:13494   */\n      swap1\n      pop\n        /* \"#utility.yul\":13516:13517   */\n      dup2\n        /* \"#utility.yul\":13510:13514   */\n      dup2\n        /* \"#utility.yul\":13507:13518   */\n      gt\n        /* \"#utility.yul\":13504:13541   */\n      iszero\n      tag_268\n      jumpi\n        /* \"#utility.yul\":13521:13539   */\n      tag_269\n      tag_129\n      jump\t// in\n    tag_269:\n        /* \"#utility.yul\":13504:13541   */\n    tag_268:\n        /* \"#utility.yul\":13354:13548   */\n      swap3\n      swap2\n      pop\n      pop\n      jump\t// out\n        /* \"#utility.yul\":13554:13701   */\n    tag_134:\n        /* \"#utility.yul\":13655:13666   */\n      0x00\n        /* \"#utility.yul\":13692:13695   */\n      dup2\n        /* \"#utility.yul\":13677:13695   */\n      swap1\n      pop\n        /* \"#utility.yul\":13554:13701   */\n      swap3\n      swap2\n      pop\n      pop\n      jump\t// out\n        /* \"#utility.yul\":13707:14093   */\n    tag_135:\n        /* \"#utility.yul\":13811:13814   */\n      0x00\n        /* \"#utility.yul\":13839:13877   */\n      tag_272\n        /* \"#utility.yul\":13871:13876   */\n      dup3\n        /* \"#utility.yul\":13839:13877   */\n      tag_118\n      jump\t// in\n    tag_272:\n        /* \"#utility.yul\":13893:13981   */\n      tag_273\n        /* \"#utility.yul\":13974:13980   */\n      dup2\n        /* \"#utility.yul\":13969:13972   */\n      dup6\n        /* \"#utility.yul\":13893:13981   */\n      tag_134\n      jump\t// in\n    tag_273:\n        /* \"#utility.yul\":13886:13981   */\n      swap4\n      pop\n        /* \"#utility.yul\":13990:14055   */\n      tag_274\n        /* \"#utility.yul\":14048:14054   */\n      dup2\n        /* \"#utility.yul\":14043:14046   */\n      dup6\n        /* \"#utility.yul\":14036:14040   */\n      0x20\n        /* \"#utility.yul\":14029:14034   */\n      dup7\n        /* \"#utility.yul\":14025:14041   */\n      add\n        /* \"#utility.yul\":13990:14055   */\n      tag_120\n      jump\t// in\n    tag_274:\n        /* \"#utility.yul\":14080:14086   */\n      dup1\n        /* \"#utility.yul\":14075:14078   */\n      dup5\n        /* \"#utility.yul\":14071:14087   */\n      add\n        /* \"#utility.yul\":14064:14087   */\n      swap2\n      pop\n        /* \"#utility.yul\":13815:14093   */\n      pop\n        /* \"#utility.yul\":13707:14093   */\n      swap3\n      swap2\n      pop\n      pop\n      jump\t// out\n        /* \"#utility.yul\":14099:14370   */\n    tag_85:\n        /* \"#utility.yul\":14229:14232   */\n      0x00\n        /* \"#utility.yul\":14251:14344   */\n      tag_276\n        /* \"#utility.yul\":14340:14343   */\n      dup3\n        /* \"#utility.yul\":14331:14337   */\n      dup5\n        /* \"#utility.yul\":14251:14344   */\n      tag_135\n      jump\t// in\n    tag_276:\n        /* \"#utility.yul\":14244:14344   */\n      swap2\n      pop\n        /* \"#utility.yul\":14361:14364   */\n      dup2\n        /* \"#utility.yul\":14354:14364   */\n      swap1\n      pop\n        /* \"#utility.yul\":14099:14370   */\n      swap3\n      swap2\n      pop\n      pop\n      jump\t// out\n        /* \"#utility.yul\":14376:14596   */\n    tag_136:\n        /* \"#utility.yul\":14516:14550   */\n      0x41626f7274696e672c2063616c6c20776173206e6f7420737563636573736675\n        /* \"#utility.yul\":14512:14513   */\n      0x00\n        /* \"#utility.yul\":14504:14510   */\n      dup3\n        /* \"#utility.yul\":14500:14514   */\n      add\n        /* \"#utility.yul\":14493:14551   */\n      mstore\n        /* \"#utility.yul\":14585:14588   */\n      0x6c00000000000000000000000000000000000000000000000000000000000000\n        /* \"#utility.yul\":14580:14582   */\n      0x20\n        /* \"#utility.yul\":14572:14578   */\n      dup3\n        /* \"#utility.yul\":14568:14583   */\n      add\n        /* \"#utility.yul\":14561:14589   */\n      mstore\n        /* \"#utility.yul\":14376:14596   */\n      pop\n      jump\t// out\n        /* \"#utility.yul\":14602:14968   */\n    tag_137:\n        /* \"#utility.yul\":14744:14747   */\n      0x00\n        /* \"#utility.yul\":14765:14832   */\n      tag_279\n        /* \"#utility.yul\":14829:14831   */\n      0x21\n        /* \"#utility.yul\":14824:14827   */\n      dup4\n        /* \"#utility.yul\":14765:14832   */\n      tag_122\n      jump\t// in\n    tag_279:\n        /* \"#utility.yul\":14758:14832   */\n      swap2\n      pop\n        /* \"#utility.yul\":14841:14934   */\n      tag_280\n        /* \"#utility.yul\":14930:14933   */\n      dup3\n        /* \"#utility.yul\":14841:14934   */\n      tag_136\n      jump\t// in\n    tag_280:\n        /* \"#utility.yul\":14959:14961   */\n      0x40\n        /* \"#utility.yul\":14954:14957   */\n      dup3\n        /* \"#utility.yul\":14950:14962   */\n      add\n        /* \"#utility.yul\":14943:14962   */\n      swap1\n      pop\n        /* \"#utility.yul\":14602:14968   */\n      swap2\n      swap1\n      pop\n      jump\t// out\n        /* \"#utility.yul\":14974:15393   */\n    tag_91:\n        /* \"#utility.yul\":15140:15144   */\n      0x00\n        /* \"#utility.yul\":15178:15180   */\n      0x20\n        /* \"#utility.yul\":15167:15176   */\n      dup3\n        /* \"#utility.yul\":15163:15181   */\n      add\n        /* \"#utility.yul\":15155:15181   */\n      swap1\n      pop\n        /* \"#utility.yul\":15227:15236   */\n      dup2\n        /* \"#utility.yul\":15221:15225   */\n      dup2\n        /* \"#utility.yul\":15217:15237   */\n      sub\n        /* \"#utility.yul\":15213:15214   */\n      0x00\n        /* \"#utility.yul\":15202:15211   */\n      dup4\n        /* \"#utility.yul\":15198:15215   */\n      add\n        /* \"#utility.yul\":15191:15238   */\n      mstore\n        /* \"#utility.yul\":15255:15386   */\n      tag_282\n        /* \"#utility.yul\":15381:15385   */\n      dup2\n        /* \"#utility.yul\":15255:15386   */\n      tag_137\n      jump\t// in\n    tag_282:\n        /* \"#utility.yul\":15247:15386   */\n      swap1\n      pop\n        /* \"#utility.yul\":14974:15393   */\n      swap2\n      swap1\n      pop\n      jump\t// out\n\n    auxdata: 0xa264697066735822122055c39a4a2bc2705fde2fc683606ca7ad204de54d4032809c3e775b6422997f7e64736f6c634300081a0033\n}\n",
				"bytecode": {
					"linkReferences": {},
					"object": "6080604052348015600e575f80fd5b50335f806101000a81548173ffffffffffffffffffffffffffffffffffffffff021916908373ffffffffffffffffffffffffffffffffffffffff1602179055506110c88061005b5f395ff3fe60806040526004361061007e575f3560e01c806383012be11161004d57806383012be114610151578063b1f8100d1461017b578063be45fd62146101a3578063f29e2236146101df57610085565b80632a663f8a14610089578063310ec4a7146100c55780633e5beab9146100ed5780637673de531461012957610085565b3661008557005b5f80fd5b348015610094575f80fd5b506100af60048036038101906100aa9190610924565b61021b565b6040516100bc9190610969565b60405180910390f35b3480156100d0575f80fd5b506100eb60048036038101906100e691906109b5565b610238565b005b3480156100f8575f80fd5b50610113600480360381019061010e9190610924565b610360565b6040516101209190610a02565b60405180910390f35b348015610134575f80fd5b5061014f600480360381019061014a9190610924565b610375565b005b34801561015c575f80fd5b50610165610459565b6040516101729190610a02565b60405180910390f35b348015610186575f80fd5b506101a1600480360381019061019c9190610a56565b61045e565b005b3480156101ae575f80fd5b506101c960048036038101906101c49190610bbd565b610627565b6040516101d69190610c89565b60405180910390f35b3480156101ea575f80fd5b5061020560048036038101906102009190610924565b61089c565b6040516102129190610969565b60405180910390f35b6002602052805f5260405f205f915054906101000a900460ff1681565b5f8054906101000a900473ffffffffffffffffffffffffffffffffffffffff1673ffffffffffffffffffffffffffffffffffffffff163373ffffffffffffffffffffffffffffffffffffffff16146102c5576040517f08c379a00000000000000000000000000000000000000000000000000000000081526004016102bc90610d03565b60405180910390fd5b8060015f8473ffffffffffffffffffffffffffffffffffffffff1673ffffffffffffffffffffffffffffffffffffffff1681526020019081526020015f2081905550600160025f8473ffffffffffffffffffffffffffffffffffffffff1673ffffffffffffffffffffffffffffffffffffffff1681526020019081526020015f205f6101000a81548160ff0219169083151502179055505050565b6001602052805f5260405f205f915090505481565b5f8054906101000a900473ffffffffffffffffffffffffffffffffffffffff1673ffffffffffffffffffffffffffffffffffffffff163373ffffffffffffffffffffffffffffffffffffffff1614610402576040517f08c379a00000000000000000000000000000000000000000000000000000000081526004016103f990610d6b565b60405180910390fd5b5f60025f8373ffffffffffffffffffffffffffffffffffffffff1673ffffffffffffffffffffffffffffffffffffffff1681526020019081526020015f205f6101000a81548160ff02191690831515021790555050565b600381565b60035f3373ffffffffffffffffffffffffffffffffffffffff1673ffffffffffffffffffffffffffffffffffffffff1681526020019081526020015f205f9054906101000a900460ff166104e7576040517f08c379a00000000000000000000000000000000000000000000000000000000081526004016104de90610dd3565b60405180910390fd5b8073ffffffffffffffffffffffffffffffffffffffff1660045f9054906101000a900473ffffffffffffffffffffffffffffffffffffffff1673ffffffffffffffffffffffffffffffffffffffff1614610583578060045f6101000a81548173ffffffffffffffffffffffffffffffffffffffff021916908373ffffffffffffffffffffffffffffffffffffffff1602179055505f6005819055505b60055f81548092919061059590610e1e565b919050555060036005541061062457805f806101000a81548173ffffffffffffffffffffffffffffffffffffffff021916908373ffffffffffffffffffffffffffffffffffffffff1602179055505f60045f6101000a81548173ffffffffffffffffffffffffffffffffffffffff021916908373ffffffffffffffffffffffffffffffffffffffff1602179055505b50565b606047831115610635575f80fd5b5f8054906101000a900473ffffffffffffffffffffffffffffffffffffffff1673ffffffffffffffffffffffffffffffffffffffff163373ffffffffffffffffffffffffffffffffffffffff16146107e45760025f3373ffffffffffffffffffffffffffffffffffffffff1673ffffffffffffffffffffffffffffffffffffffff1681526020019081526020015f205f9054906101000a900460ff16610710576040517f08c379a000000000000000000000000000000000000000000000000000000000815260040161070790610ed5565b60405180910390fd5b8260015f3373ffffffffffffffffffffffffffffffffffffffff1673ffffffffffffffffffffffffffffffffffffffff1681526020019081526020015f20541015610790576040517f08c379a000000000000000000000000000000000000000000000000000000000815260040161078790610f63565b60405180910390fd5b8260015f3373ffffffffffffffffffffffffffffffffffffffff1673ffffffffffffffffffffffffffffffffffffffff1681526020019081526020015f205f8282546107dc9190610f81565b925050819055505b5f808573ffffffffffffffffffffffffffffffffffffffff16858560405161080c9190610fee565b5f6040518083038185875af1925050503d805f8114610846576040519150601f19603f3d011682016040523d82523d5f602084013e61084b565b606091505b509150915081610890576040517f08c379a000000000000000000000000000000000000000000000000000000000815260040161088790611074565b60405180910390fd5b80925050509392505050565b6003602052805f5260405f205f915054906101000a900460ff1681565b5f604051905090565b5f80fd5b5f80fd5b5f73ffffffffffffffffffffffffffffffffffffffff82169050919050565b5f6108f3826108ca565b9050919050565b610903816108e9565b811461090d575f80fd5b50565b5f8135905061091e816108fa565b92915050565b5f60208284031215610939576109386108c2565b5b5f61094684828501610910565b91505092915050565b5f8115159050919050565b6109638161094f565b82525050565b5f60208201905061097c5f83018461095a565b92915050565b5f819050919050565b61099481610982565b811461099e575f80fd5b50565b5f813590506109af8161098b565b92915050565b5f80604083850312156109cb576109ca6108c2565b5b5f6109d885828601610910565b92505060206109e9858286016109a1565b9150509250929050565b6109fc81610982565b82525050565b5f602082019050610a155f8301846109f3565b92915050565b5f610a25826108ca565b9050919050565b610a3581610a1b565b8114610a3f575f80fd5b50565b5f81359050610a5081610a2c565b92915050565b5f60208284031215610a6b57610a6a6108c2565b5b5f610a7884828501610a42565b91505092915050565b5f80fd5b5f80fd5b5f601f19601f8301169050919050565b7f4e487b71000000000000000000000000000000000000000000000000000000005f52604160045260245ffd5b610acf82610a89565b810181811067ffffffffffffffff82111715610aee57610aed610a99565b5b80604052505050565b5f610b006108b9565b9050610b0c8282610ac6565b919050565b5f67ffffffffffffffff821115610b2b57610b2a610a99565b5b610b3482610a89565b9050602081019050919050565b828183375f83830152505050565b5f610b61610b5c84610b11565b610af7565b905082815260208101848484011115610b7d57610b7c610a85565b5b610b88848285610b41565b509392505050565b5f82601f830112610ba457610ba3610a81565b5b8135610bb4848260208601610b4f565b91505092915050565b5f805f60608486031215610bd457610bd36108c2565b5b5f610be186828701610a42565b9350506020610bf2868287016109a1565b925050604084013567ffffffffffffffff811115610c1357610c126108c6565b5b610c1f86828701610b90565b9150509250925092565b5f81519050919050565b5f82825260208201905092915050565b8281835e5f83830152505050565b5f610c5b82610c29565b610c658185610c33565b9350610c75818560208601610c43565b610c7e81610a89565b840191505092915050565b5f6020820190508181035f830152610ca18184610c51565b905092915050565b5f82825260208201905092915050565b7f796f757220617265206e6f7420746865206f776e65722c2061626f7274696e675f82015250565b5f610ced602083610ca9565b9150610cf882610cb9565b602082019050919050565b5f6020820190508181035f830152610d1a81610ce1565b9050919050565b7f596f7520617265206e6f7420746865206f776e65722c2061626f7274696e67005f82015250565b5f610d55601f83610ca9565b9150610d6082610d21565b602082019050919050565b5f6020820190508181035f830152610d8281610d49565b9050919050565b7f596f7520617265206e6f20677561726469616e2c2061626f7274696e670000005f82015250565b5f610dbd601d83610ca9565b9150610dc882610d89565b602082019050919050565b5f6020820190508181035f830152610dea81610db1565b9050919050565b7f4e487b71000000000000000000000000000000000000000000000000000000005f52601160045260245ffd5b5f610e2882610982565b91507fffffffffffffffffffffffffffffffffffffffffffffffffffffffffffffffff8203610e5a57610e59610df1565b5b600182019050919050565b7f596f7520617265206e6f7420616c6c6f77656420746f2073656e6420616e79205f8201527f7472616e73616374696f6e732c2061626f7274696e6700000000000000000000602082015250565b5f610ebf603683610ca9565b9150610eca82610e65565b604082019050919050565b5f6020820190508181035f830152610eec81610eb3565b9050919050565b7f596f752061726520747279696e6720746f2073656e64206d6f7265207468616e5f8201527f20796f752061726520616c6c6f77656420746f2c2061626f7274696e67000000602082015250565b5f610f4d603d83610ca9565b9150610f5882610ef3565b604082019050919050565b5f6020820190508181035f830152610f7a81610f41565b9050919050565b5f610f8b82610982565b9150610f9683610982565b9250828203905081811115610fae57610fad610df1565b5b92915050565b5f81905092915050565b5f610fc882610c29565b610fd28185610fb4565b9350610fe2818560208601610c43565b80840191505092915050565b5f610ff98284610fbe565b915081905092915050565b7f41626f7274696e672c2063616c6c20776173206e6f74207375636365737366755f8201527f6c00000000000000000000000000000000000000000000000000000000000000602082015250565b5f61105e602183610ca9565b915061106982611004565b604082019050919050565b5f6020820190508181035f83015261108b81611052565b905091905056fea264697066735822122055c39a4a2bc2705fde2fc683606ca7ad204de54d4032809c3e775b6422997f7e64736f6c634300081a0033",
					"opcodes": "PUSH1 0x80 PUSH1 0x40 MSTORE CALLVALUE DUP1 ISZERO PUSH1 0xE JUMPI PUSH0 DUP1 REVERT JUMPDEST POP CALLER PUSH0 DUP1 PUSH2 0x100 EXP DUP2 SLOAD DUP2 PUSH20 0xFFFFFFFFFFFFFFFFFFFFFFFFFFFFFFFFFFFFFFFF MUL NOT AND SWAP1 DUP4 PUSH20 0xFFFFFFFFFFFFFFFFFFFFFFFFFFFFFFFFFFFFFFFF AND MUL OR SWAP1 SSTORE POP PUSH2 0x10C8 DUP1 PUSH2 0x5B PUSH0 CODECOPY PUSH0 RETURN INVALID PUSH1 0x80 PUSH1 0x40 MSTORE PUSH1 0x4 CALLDATASIZE LT PUSH2 0x7E JUMPI PUSH0 CALLDATALOAD PUSH1 0xE0 SHR DUP1 PUSH4 0x83012BE1 GT PUSH2 0x4D JUMPI DUP1 PUSH4 0x83012BE1 EQ PUSH2 0x151 JUMPI DUP1 PUSH4 0xB1F8100D EQ PUSH2 0x17B JUMPI DUP1 PUSH4 0xBE45FD62 EQ PUSH2 0x1A3 JUMPI DUP1 PUSH4 0xF29E2236 EQ PUSH2 0x1DF JUMPI PUSH2 0x85 JUMP JUMPDEST DUP1 PUSH4 0x2A663F8A EQ PUSH2 0x89 JUMPI DUP1 PUSH4 0x310EC4A7 EQ PUSH2 0xC5 JUMPI DUP1 PUSH4 0x3E5BEAB9 EQ PUSH2 0xED JUMPI DUP1 PUSH4 0x7673DE53 EQ PUSH2 0x129 JUMPI PUSH2 0x85 JUMP JUMPDEST CALLDATASIZE PUSH2 0x85 JUMPI STOP JUMPDEST PUSH0 DUP1 REVERT JUMPDEST CALLVALUE DUP1 ISZERO PUSH2 0x94 JUMPI PUSH0 DUP1 REVERT JUMPDEST POP PUSH2 0xAF PUSH1 0x4 DUP1 CALLDATASIZE SUB DUP2 ADD SWAP1 PUSH2 0xAA SWAP2 SWAP1 PUSH2 0x924 JUMP JUMPDEST PUSH2 0x21B JUMP JUMPDEST PUSH1 0x40 MLOAD PUSH2 0xBC SWAP2 SWAP1 PUSH2 0x969 JUMP JUMPDEST PUSH1 0x40 MLOAD DUP1 SWAP2 SUB SWAP1 RETURN JUMPDEST CALLVALUE DUP1 ISZERO PUSH2 0xD0 JUMPI PUSH0 DUP1 REVERT JUMPDEST POP PUSH2 0xEB PUSH1 0x4 DUP1 CALLDATASIZE SUB DUP2 ADD SWAP1 PUSH2 0xE6 SWAP2 SWAP1 PUSH2 0x9B5 JUMP JUMPDEST PUSH2 0x238 JUMP JUMPDEST STOP JUMPDEST CALLVALUE DUP1 ISZERO PUSH2 0xF8 JUMPI PUSH0 DUP1 REVERT JUMPDEST POP PUSH2 0x113 PUSH1 0x4 DUP1 CALLDATASIZE SUB DUP2 ADD SWAP1 PUSH2 0x10E SWAP2 SWAP1 PUSH2 0x924 JUMP JUMPDEST PUSH2 0x360 JUMP JUMPDEST PUSH1 0x40 MLOAD PUSH2 0x120 SWAP2 SWAP1 PUSH2 0xA02 JUMP JUMPDEST PUSH1 0x40 MLOAD DUP1 SWAP2 SUB SWAP1 RETURN JUMPDEST CALLVALUE DUP1 ISZERO PUSH2 0x134 JUMPI PUSH0 DUP1 REVERT JUMPDEST POP PUSH2 0x14F PUSH1 0x4 DUP1 CALLDATASIZE SUB DUP2 ADD SWAP1 PUSH2 0x14A SWAP2 SWAP1 PUSH2 0x924 JUMP JUMPDEST PUSH2 0x375 JUMP JUMPDEST STOP JUMPDEST CALLVALUE DUP1 ISZERO PUSH2 0x15C JUMPI PUSH0 DUP1 REVERT JUMPDEST POP PUSH2 0x165 PUSH2 0x459 JUMP JUMPDEST PUSH1 0x40 MLOAD PUSH2 0x172 SWAP2 SWAP1 PUSH2 0xA02 JUMP JUMPDEST PUSH1 0x40 MLOAD DUP1 SWAP2 SUB SWAP1 RETURN JUMPDEST CALLVALUE DUP1 ISZERO PUSH2 0x186 JUMPI PUSH0 DUP1 REVERT JUMPDEST POP PUSH2 0x1A1 PUSH1 0x4 DUP1 CALLDATASIZE SUB DUP2 ADD SWAP1 PUSH2 0x19C SWAP2 SWAP1 PUSH2 0xA56 JUMP JUMPDEST PUSH2 0x45E JUMP JUMPDEST STOP JUMPDEST CALLVALUE DUP1 ISZERO PUSH2 0x1AE JUMPI PUSH0 DUP1 REVERT JUMPDEST POP PUSH2 0x1C9 PUSH1 0x4 DUP1 CALLDATASIZE SUB DUP2 ADD SWAP1 PUSH2 0x1C4 SWAP2 SWAP1 PUSH2 0xBBD JUMP JUMPDEST PUSH2 0x627 JUMP JUMPDEST PUSH1 0x40 MLOAD PUSH2 0x1D6 SWAP2 SWAP1 PUSH2 0xC89 JUMP JUMPDEST PUSH1 0x40 MLOAD DUP1 SWAP2 SUB SWAP1 RETURN JUMPDEST CALLVALUE DUP1 ISZERO PUSH2 0x1EA JUMPI PUSH0 DUP1 REVERT JUMPDEST POP PUSH2 0x205 PUSH1 0x4 DUP1 CALLDATASIZE SUB DUP2 ADD SWAP1 PUSH2 0x200 SWAP2 SWAP1 PUSH2 0x924 JUMP JUMPDEST PUSH2 0x89C JUMP JUMPDEST PUSH1 0x40 MLOAD PUSH2 0x212 SWAP2 SWAP1 PUSH2 0x969 JUMP JUMPDEST PUSH1 0x40 MLOAD DUP1 SWAP2 SUB SWAP1 RETURN JUMPDEST PUSH1 0x2 PUSH1 0x20 MSTORE DUP1 PUSH0 MSTORE PUSH1 0x40 PUSH0 KECCAK256 PUSH0 SWAP2 POP SLOAD SWAP1 PUSH2 0x100 EXP SWAP1 DIV PUSH1 0xFF AND DUP2 JUMP JUMPDEST PUSH0 DUP1 SLOAD SWAP1 PUSH2 0x100 EXP SWAP1 DIV PUSH20 0xFFFFFFFFFFFFFFFFFFFFFFFFFFFFFFFFFFFFFFFF AND PUSH20 0xFFFFFFFFFFFFFFFFFFFFFFFFFFFFFFFFFFFFFFFF AND CALLER PUSH20 0xFFFFFFFFFFFFFFFFFFFFFFFFFFFFFFFFFFFFFFFF AND EQ PUSH2 0x2C5 JUMPI PUSH1 0x40 MLOAD PUSH32 0x8C379A000000000000000000000000000000000000000000000000000000000 DUP2 MSTORE PUSH1 0x4 ADD PUSH2 0x2BC SWAP1 PUSH2 0xD03 JUMP JUMPDEST PUSH1 0x40 MLOAD DUP1 SWAP2 SUB SWAP1 REVERT JUMPDEST DUP1 PUSH1 0x1 PUSH0 DUP5 PUSH20 0xFFFFFFFFFFFFFFFFFFFFFFFFFFFFFFFFFFFFFFFF AND PUSH20 0xFFFFFFFFFFFFFFFFFFFFFFFFFFFFFFFFFFFFFFFF AND DUP2 MSTORE PUSH1 0x20 ADD SWAP1 DUP2 MSTORE PUSH1 0x20 ADD PUSH0 KECCAK256 DUP2 SWAP1 SSTORE POP PUSH1 0x1 PUSH1 0x2 PUSH0 DUP5 PUSH20 0xFFFFFFFFFFFFFFFFFFFFFFFFFFFFFFFFFFFFFFFF AND PUSH20 0xFFFFFFFFFFFFFFFFFFFFFFFFFFFFFFFFFFFFFFFF AND DUP2 MSTORE PUSH1 0x20 ADD SWAP1 DUP2 MSTORE PUSH1 0x20 ADD PUSH0 KECCAK256 PUSH0 PUSH2 0x100 EXP DUP2 SLOAD DUP2 PUSH1 0xFF MUL NOT AND SWAP1 DUP4 ISZERO ISZERO MUL OR SWAP1 SSTORE POP POP POP JUMP JUMPDEST PUSH1 0x1 PUSH1 0x20 MSTORE DUP1 PUSH0 MSTORE PUSH1 0x40 PUSH0 KECCAK256 PUSH0 SWAP2 POP SWAP1 POP SLOAD DUP2 JUMP JUMPDEST PUSH0 DUP1 SLOAD SWAP1 PUSH2 0x100 EXP SWAP1 DIV PUSH20 0xFFFFFFFFFFFFFFFFFFFFFFFFFFFFFFFFFFFFFFFF AND PUSH20 0xFFFFFFFFFFFFFFFFFFFFFFFFFFFFFFFFFFFFFFFF AND CALLER PUSH20 0xFFFFFFFFFFFFFFFFFFFFFFFFFFFFFFFFFFFFFFFF AND EQ PUSH2 0x402 JUMPI PUSH1 0x40 MLOAD PUSH32 0x8C379A000000000000000000000000000000000000000000000000000000000 DUP2 MSTORE PUSH1 0x4 ADD PUSH2 0x3F9 SWAP1 PUSH2 0xD6B JUMP JUMPDEST PUSH1 0x40 MLOAD DUP1 SWAP2 SUB SWAP1 REVERT JUMPDEST PUSH0 PUSH1 0x2 PUSH0 DUP4 PUSH20 0xFFFFFFFFFFFFFFFFFFFFFFFFFFFFFFFFFFFFFFFF AND PUSH20 0xFFFFFFFFFFFFFFFFFFFFFFFFFFFFFFFFFFFFFFFF AND DUP2 MSTORE PUSH1 0x20 ADD SWAP1 DUP2 MSTORE PUSH1 0x20 ADD PUSH0 KECCAK256 PUSH0 PUSH2 0x100 EXP DUP2 SLOAD DUP2 PUSH1 0xFF MUL NOT AND SWAP1 DUP4 ISZERO ISZERO MUL OR SWAP1 SSTORE POP POP JUMP JUMPDEST PUSH1 0x3 DUP2 JUMP JUMPDEST PUSH1 0x3 PUSH0 CALLER PUSH20 0xFFFFFFFFFFFFFFFFFFFFFFFFFFFFFFFFFFFFFFFF AND PUSH20 0xFFFFFFFFFFFFFFFFFFFFFFFFFFFFFFFFFFFFFFFF AND DUP2 MSTORE PUSH1 0x20 ADD SWAP1 DUP2 MSTORE PUSH1 0x20 ADD PUSH0 KECCAK256 PUSH0 SWAP1 SLOAD SWAP1 PUSH2 0x100 EXP SWAP1 DIV PUSH1 0xFF AND PUSH2 0x4E7 JUMPI PUSH1 0x40 MLOAD PUSH32 0x8C379A000000000000000000000000000000000000000000000000000000000 DUP2 MSTORE PUSH1 0x4 ADD PUSH2 0x4DE SWAP1 PUSH2 0xDD3 JUMP JUMPDEST PUSH1 0x40 MLOAD DUP1 SWAP2 SUB SWAP1 REVERT JUMPDEST DUP1 PUSH20 0xFFFFFFFFFFFFFFFFFFFFFFFFFFFFFFFFFFFFFFFF AND PUSH1 0x4 PUSH0 SWAP1 SLOAD SWAP1 PUSH2 0x100 EXP SWAP1 DIV PUSH20 0xFFFFFFFFFFFFFFFFFFFFFFFFFFFFFFFFFFFFFFFF AND PUSH20 0xFFFFFFFFFFFFFFFFFFFFFFFFFFFFFFFFFFFFFFFF AND EQ PUSH2 0x583 JUMPI DUP1 PUSH1 0x4 PUSH0 PUSH2 0x100 EXP DUP2 SLOAD DUP2 PUSH20 0xFFFFFFFFFFFFFFFFFFFFFFFFFFFFFFFFFFFFFFFF MUL NOT AND SWAP1 DUP4 PUSH20 0xFFFFFFFFFFFFFFFFFFFFFFFFFFFFFFFFFFFFFFFF AND MUL OR SWAP1 SSTORE POP PUSH0 PUSH1 0x5 DUP2 SWAP1 SSTORE POP JUMPDEST PUSH1 0x5 PUSH0 DUP2 SLOAD DUP1 SWAP3 SWAP2 SWAP1 PUSH2 0x595 SWAP1 PUSH2 0xE1E JUMP JUMPDEST SWAP2 SWAP1 POP SSTORE POP PUSH1 0x3 PUSH1 0x5 SLOAD LT PUSH2 0x624 JUMPI DUP1 PUSH0 DUP1 PUSH2 0x100 EXP DUP2 SLOAD DUP2 PUSH20 0xFFFFFFFFFFFFFFFFFFFFFFFFFFFFFFFFFFFFFFFF MUL NOT AND SWAP1 DUP4 PUSH20 0xFFFFFFFFFFFFFFFFFFFFFFFFFFFFFFFFFFFFFFFF AND MUL OR SWAP1 SSTORE POP PUSH0 PUSH1 0x4 PUSH0 PUSH2 0x100 EXP DUP2 SLOAD DUP2 PUSH20 0xFFFFFFFFFFFFFFFFFFFFFFFFFFFFFFFFFFFFFFFF MUL NOT AND SWAP1 DUP4 PUSH20 0xFFFFFFFFFFFFFFFFFFFFFFFFFFFFFFFFFFFFFFFF AND MUL OR SWAP1 SSTORE POP JUMPDEST POP JUMP JUMPDEST PUSH1 0x60 SELFBALANCE DUP4 GT ISZERO PUSH2 0x635 JUMPI PUSH0 DUP1 REVERT JUMPDEST PUSH0 DUP1 SLOAD SWAP1 PUSH2 0x100 EXP SWAP1 DIV PUSH20 0xFFFFFFFFFFFFFFFFFFFFFFFFFFFFFFFFFFFFFFFF AND PUSH20 0xFFFFFFFFFFFFFFFFFFFFFFFFFFFFFFFFFFFFFFFF AND CALLER PUSH20 0xFFFFFFFFFFFFFFFFFFFFFFFFFFFFFFFFFFFFFFFF AND EQ PUSH2 0x7E4 JUMPI PUSH1 0x2 PUSH0 CALLER PUSH20 0xFFFFFFFFFFFFFFFFFFFFFFFFFFFFFFFFFFFFFFFF AND PUSH20 0xFFFFFFFFFFFFFFFFFFFFFFFFFFFFFFFFFFFFFFFF AND DUP2 MSTORE PUSH1 0x20 ADD SWAP1 DUP2 MSTORE PUSH1 0x20 ADD PUSH0 KECCAK256 PUSH0 SWAP1 SLOAD SWAP1 PUSH2 0x100 EXP SWAP1 DIV PUSH1 0xFF AND PUSH2 0x710 JUMPI PUSH1 0x40 MLOAD PUSH32 0x8C379A000000000000000000000000000000000000000000000000000000000 DUP2 MSTORE PUSH1 0x4 ADD PUSH2 0x707 SWAP1 PUSH2 0xED5 JUMP JUMPDEST PUSH1 0x40 MLOAD DUP1 SWAP2 SUB SWAP1 REVERT JUMPDEST DUP3 PUSH1 0x1 PUSH0 CALLER PUSH20 0xFFFFFFFFFFFFFFFFFFFFFFFFFFFFFFFFFFFFFFFF AND PUSH20 0xFFFFFFFFFFFFFFFFFFFFFFFFFFFFFFFFFFFFFFFF AND DUP2 MSTORE PUSH1 0x20 ADD SWAP1 DUP2 MSTORE PUSH1 0x20 ADD PUSH0 KECCAK256 SLOAD LT ISZERO PUSH2 0x790 JUMPI PUSH1 0x40 MLOAD PUSH32 0x8C379A000000000000000000000000000000000000000000000000000000000 DUP2 MSTORE PUSH1 0x4 ADD PUSH2 0x787 SWAP1 PUSH2 0xF63 JUMP JUMPDEST PUSH1 0x40 MLOAD DUP1 SWAP2 SUB SWAP1 REVERT JUMPDEST DUP3 PUSH1 0x1 PUSH0 CALLER PUSH20 0xFFFFFFFFFFFFFFFFFFFFFFFFFFFFFFFFFFFFFFFF AND PUSH20 0xFFFFFFFFFFFFFFFFFFFFFFFFFFFFFFFFFFFFFFFF AND DUP2 MSTORE PUSH1 0x20 ADD SWAP1 DUP2 MSTORE PUSH1 0x20 ADD PUSH0 KECCAK256 PUSH0 DUP3 DUP3 SLOAD PUSH2 0x7DC SWAP2 SWAP1 PUSH2 0xF81 JUMP JUMPDEST SWAP3 POP POP DUP2 SWAP1 SSTORE POP JUMPDEST PUSH0 DUP1 DUP6 PUSH20 0xFFFFFFFFFFFFFFFFFFFFFFFFFFFFFFFFFFFFFFFF AND DUP6 DUP6 PUSH1 0x40 MLOAD PUSH2 0x80C SWAP2 SWAP1 PUSH2 0xFEE JUMP JUMPDEST PUSH0 PUSH1 0x40 MLOAD DUP1 DUP4 SUB DUP2 DUP6 DUP8 GAS CALL SWAP3 POP POP POP RETURNDATASIZE DUP1 PUSH0 DUP2 EQ PUSH2 0x846 JUMPI PUSH1 0x40 MLOAD SWAP2 POP PUSH1 0x1F NOT PUSH1 0x3F RETURNDATASIZE ADD AND DUP3 ADD PUSH1 0x40 MSTORE RETURNDATASIZE DUP3 MSTORE RETURNDATASIZE PUSH0 PUSH1 0x20 DUP5 ADD RETURNDATACOPY PUSH2 0x84B JUMP JUMPDEST PUSH1 0x60 SWAP2 POP JUMPDEST POP SWAP2 POP SWAP2 POP DUP2 PUSH2 0x890 JUMPI PUSH1 0x40 MLOAD PUSH32 0x8C379A000000000000000000000000000000000000000000000000000000000 DUP2 MSTORE PUSH1 0x4 ADD PUSH2 0x887 SWAP1 PUSH2 0x1074 JUMP JUMPDEST PUSH1 0x40 MLOAD DUP1 SWAP2 SUB SWAP1 REVERT JUMPDEST DUP1 SWAP3 POP POP POP SWAP4 SWAP3 POP POP POP JUMP JUMPDEST PUSH1 0x3 PUSH1 0x20 MSTORE DUP1 PUSH0 MSTORE PUSH1 0x40 PUSH0 KECCAK256 PUSH0 SWAP2 POP SLOAD SWAP1 PUSH2 0x100 EXP SWAP1 DIV PUSH1 0xFF AND DUP2 JUMP JUMPDEST PUSH0 PUSH1 0x40 MLOAD SWAP1 POP SWAP1 JUMP JUMPDEST PUSH0 DUP1 REVERT JUMPDEST PUSH0 DUP1 REVERT JUMPDEST PUSH0 PUSH20 0xFFFFFFFFFFFFFFFFFFFFFFFFFFFFFFFFFFFFFFFF DUP3 AND SWAP1 POP SWAP2 SWAP1 POP JUMP JUMPDEST PUSH0 PUSH2 0x8F3 DUP3 PUSH2 0x8CA JUMP JUMPDEST SWAP1 POP SWAP2 SWAP1 POP JUMP JUMPDEST PUSH2 0x903 DUP2 PUSH2 0x8E9 JUMP JUMPDEST DUP2 EQ PUSH2 0x90D JUMPI PUSH0 DUP1 REVERT JUMPDEST POP JUMP JUMPDEST PUSH0 DUP2 CALLDATALOAD SWAP1 POP PUSH2 0x91E DUP2 PUSH2 0x8FA JUMP JUMPDEST SWAP3 SWAP2 POP POP JUMP JUMPDEST PUSH0 PUSH1 0x20 DUP3 DUP5 SUB SLT ISZERO PUSH2 0x939 JUMPI PUSH2 0x938 PUSH2 0x8C2 JUMP JUMPDEST JUMPDEST PUSH0 PUSH2 0x946 DUP5 DUP3 DUP6 ADD PUSH2 0x910 JUMP JUMPDEST SWAP2 POP POP SWAP3 SWAP2 POP POP JUMP JUMPDEST PUSH0 DUP2 ISZERO ISZERO SWAP1 POP SWAP2 SWAP1 POP JUMP JUMPDEST PUSH2 0x963 DUP2 PUSH2 0x94F JUMP JUMPDEST DUP3 MSTORE POP POP JUMP JUMPDEST PUSH0 PUSH1 0x20 DUP3 ADD SWAP1 POP PUSH2 0x97C PUSH0 DUP4 ADD DUP5 PUSH2 0x95A JUMP JUMPDEST SWAP3 SWAP2 POP POP JUMP JUMPDEST PUSH0 DUP2 SWAP1 POP SWAP2 SWAP1 POP JUMP JUMPDEST PUSH2 0x994 DUP2 PUSH2 0x982 JUMP JUMPDEST DUP2 EQ PUSH2 0x99E JUMPI PUSH0 DUP1 REVERT JUMPDEST POP JUMP JUMPDEST PUSH0 DUP2 CALLDATALOAD SWAP1 POP PUSH2 0x9AF DUP2 PUSH2 0x98B JUMP JUMPDEST SWAP3 SWAP2 POP POP JUMP JUMPDEST PUSH0 DUP1 PUSH1 0x40 DUP4 DUP6 SUB SLT ISZERO PUSH2 0x9CB JUMPI PUSH2 0x9CA PUSH2 0x8C2 JUMP JUMPDEST JUMPDEST PUSH0 PUSH2 0x9D8 DUP6 DUP3 DUP7 ADD PUSH2 0x910 JUMP JUMPDEST SWAP3 POP POP PUSH1 0x20 PUSH2 0x9E9 DUP6 DUP3 DUP7 ADD PUSH2 0x9A1 JUMP JUMPDEST SWAP2 POP POP SWAP3 POP SWAP3 SWAP1 POP JUMP JUMPDEST PUSH2 0x9FC DUP2 PUSH2 0x982 JUMP JUMPDEST DUP3 MSTORE POP POP JUMP JUMPDEST PUSH0 PUSH1 0x20 DUP3 ADD SWAP1 POP PUSH2 0xA15 PUSH0 DUP4 ADD DUP5 PUSH2 0x9F3 JUMP JUMPDEST SWAP3 SWAP2 POP POP JUMP JUMPDEST PUSH0 PUSH2 0xA25 DUP3 PUSH2 0x8CA JUMP JUMPDEST SWAP1 POP SWAP2 SWAP1 POP JUMP JUMPDEST PUSH2 0xA35 DUP2 PUSH2 0xA1B JUMP JUMPDEST DUP2 EQ PUSH2 0xA3F JUMPI PUSH0 DUP1 REVERT JUMPDEST POP JUMP JUMPDEST PUSH0 DUP2 CALLDATALOAD SWAP1 POP PUSH2 0xA50 DUP2 PUSH2 0xA2C JUMP JUMPDEST SWAP3 SWAP2 POP POP JUMP JUMPDEST PUSH0 PUSH1 0x20 DUP3 DUP5 SUB SLT ISZERO PUSH2 0xA6B JUMPI PUSH2 0xA6A PUSH2 0x8C2 JUMP JUMPDEST JUMPDEST PUSH0 PUSH2 0xA78 DUP5 DUP3 DUP6 ADD PUSH2 0xA42 JUMP JUMPDEST SWAP2 POP POP SWAP3 SWAP2 POP POP JUMP JUMPDEST PUSH0 DUP1 REVERT JUMPDEST PUSH0 DUP1 REVERT JUMPDEST PUSH0 PUSH1 0x1F NOT PUSH1 0x1F DUP4 ADD AND SWAP1 POP SWAP2 SWAP1 POP JUMP JUMPDEST PUSH32 0x4E487B7100000000000000000000000000000000000000000000000000000000 PUSH0 MSTORE PUSH1 0x41 PUSH1 0x4 MSTORE PUSH1 0x24 PUSH0 REVERT JUMPDEST PUSH2 0xACF DUP3 PUSH2 0xA89 JUMP JUMPDEST DUP2 ADD DUP2 DUP2 LT PUSH8 0xFFFFFFFFFFFFFFFF DUP3 GT OR ISZERO PUSH2 0xAEE JUMPI PUSH2 0xAED PUSH2 0xA99 JUMP JUMPDEST JUMPDEST DUP1 PUSH1 0x40 MSTORE POP POP POP JUMP JUMPDEST PUSH0 PUSH2 0xB00 PUSH2 0x8B9 JUMP JUMPDEST SWAP1 POP PUSH2 0xB0C DUP3 DUP3 PUSH2 0xAC6 JUMP JUMPDEST SWAP2 SWAP1 POP JUMP JUMPDEST PUSH0 PUSH8 0xFFFFFFFFFFFFFFFF DUP3 GT ISZERO PUSH2 0xB2B JUMPI PUSH2 0xB2A PUSH2 0xA99 JUMP JUMPDEST JUMPDEST PUSH2 0xB34 DUP3 PUSH2 0xA89 JUMP JUMPDEST SWAP1 POP PUSH1 0x20 DUP2 ADD SWAP1 POP SWAP2 SWAP1 POP JUMP JUMPDEST DUP3 DUP2 DUP4 CALLDATACOPY PUSH0 DUP4 DUP4 ADD MSTORE POP POP POP JUMP JUMPDEST PUSH0 PUSH2 0xB61 PUSH2 0xB5C DUP5 PUSH2 0xB11 JUMP JUMPDEST PUSH2 0xAF7 JUMP JUMPDEST SWAP1 POP DUP3 DUP2 MSTORE PUSH1 0x20 DUP2 ADD DUP5 DUP5 DUP5 ADD GT ISZERO PUSH2 0xB7D JUMPI PUSH2 0xB7C PUSH2 0xA85 JUMP JUMPDEST JUMPDEST PUSH2 0xB88 DUP5 DUP3 DUP6 PUSH2 0xB41 JUMP JUMPDEST POP SWAP4 SWAP3 POP POP POP JUMP JUMPDEST PUSH0 DUP3 PUSH1 0x1F DUP4 ADD SLT PUSH2 0xBA4 JUMPI PUSH2 0xBA3 PUSH2 0xA81 JUMP JUMPDEST JUMPDEST DUP2 CALLDATALOAD PUSH2 0xBB4 DUP5 DUP3 PUSH1 0x20 DUP7 ADD PUSH2 0xB4F JUMP JUMPDEST SWAP2 POP POP SWAP3 SWAP2 POP POP JUMP JUMPDEST PUSH0 DUP1 PUSH0 PUSH1 0x60 DUP5 DUP7 SUB SLT ISZERO PUSH2 0xBD4 JUMPI PUSH2 0xBD3 PUSH2 0x8C2 JUMP JUMPDEST JUMPDEST PUSH0 PUSH2 0xBE1 DUP7 DUP3 DUP8 ADD PUSH2 0xA42 JUMP JUMPDEST SWAP4 POP POP PUSH1 0x20 PUSH2 0xBF2 DUP7 DUP3 DUP8 ADD PUSH2 0x9A1 JUMP JUMPDEST SWAP3 POP POP PUSH1 0x40 DUP5 ADD CALLDATALOAD PUSH8 0xFFFFFFFFFFFFFFFF DUP2 GT ISZERO PUSH2 0xC13 JUMPI PUSH2 0xC12 PUSH2 0x8C6 JUMP JUMPDEST JUMPDEST PUSH2 0xC1F DUP7 DUP3 DUP8 ADD PUSH2 0xB90 JUMP JUMPDEST SWAP2 POP POP SWAP3 POP SWAP3 POP SWAP3 JUMP JUMPDEST PUSH0 DUP2 MLOAD SWAP1 POP SWAP2 SWAP1 POP JUMP JUMPDEST PUSH0 DUP3 DUP3 MSTORE PUSH1 0x20 DUP3 ADD SWAP1 POP SWAP3 SWAP2 POP POP JUMP JUMPDEST DUP3 DUP2 DUP4 MCOPY PUSH0 DUP4 DUP4 ADD MSTORE POP POP POP JUMP JUMPDEST PUSH0 PUSH2 0xC5B DUP3 PUSH2 0xC29 JUMP JUMPDEST PUSH2 0xC65 DUP2 DUP6 PUSH2 0xC33 JUMP JUMPDEST SWAP4 POP PUSH2 0xC75 DUP2 DUP6 PUSH1 0x20 DUP7 ADD PUSH2 0xC43 JUMP JUMPDEST PUSH2 0xC7E DUP2 PUSH2 0xA89 JUMP JUMPDEST DUP5 ADD SWAP2 POP POP SWAP3 SWAP2 POP POP JUMP JUMPDEST PUSH0 PUSH1 0x20 DUP3 ADD SWAP1 POP DUP2 DUP2 SUB PUSH0 DUP4 ADD MSTORE PUSH2 0xCA1 DUP2 DUP5 PUSH2 0xC51 JUMP JUMPDEST SWAP1 POP SWAP3 SWAP2 POP POP JUMP JUMPDEST PUSH0 DUP3 DUP3 MSTORE PUSH1 0x20 DUP3 ADD SWAP1 POP SWAP3 SWAP2 POP POP JUMP JUMPDEST PUSH32 0x796F757220617265206E6F7420746865206F776E65722C2061626F7274696E67 PUSH0 DUP3 ADD MSTORE POP JUMP JUMPDEST PUSH0 PUSH2 0xCED PUSH1 0x20 DUP4 PUSH2 0xCA9 JUMP JUMPDEST SWAP2 POP PUSH2 0xCF8 DUP3 PUSH2 0xCB9 JUMP JUMPDEST PUSH1 0x20 DUP3 ADD SWAP1 POP SWAP2 SWAP1 POP JUMP JUMPDEST PUSH0 PUSH1 0x20 DUP3 ADD SWAP1 POP DUP2 DUP2 SUB PUSH0 DUP4 ADD MSTORE PUSH2 0xD1A DUP2 PUSH2 0xCE1 JUMP JUMPDEST SWAP1 POP SWAP2 SWAP1 POP JUMP JUMPDEST PUSH32 0x596F7520617265206E6F7420746865206F776E65722C2061626F7274696E6700 PUSH0 DUP3 ADD MSTORE POP JUMP JUMPDEST PUSH0 PUSH2 0xD55 PUSH1 0x1F DUP4 PUSH2 0xCA9 JUMP JUMPDEST SWAP2 POP PUSH2 0xD60 DUP3 PUSH2 0xD21 JUMP JUMPDEST PUSH1 0x20 DUP3 ADD SWAP1 POP SWAP2 SWAP1 POP JUMP JUMPDEST PUSH0 PUSH1 0x20 DUP3 ADD SWAP1 POP DUP2 DUP2 SUB PUSH0 DUP4 ADD MSTORE PUSH2 0xD82 DUP2 PUSH2 0xD49 JUMP JUMPDEST SWAP1 POP SWAP2 SWAP1 POP JUMP JUMPDEST PUSH32 0x596F7520617265206E6F20677561726469616E2C2061626F7274696E67000000 PUSH0 DUP3 ADD MSTORE POP JUMP JUMPDEST PUSH0 PUSH2 0xDBD PUSH1 0x1D DUP4 PUSH2 0xCA9 JUMP JUMPDEST SWAP2 POP PUSH2 0xDC8 DUP3 PUSH2 0xD89 JUMP JUMPDEST PUSH1 0x20 DUP3 ADD SWAP1 POP SWAP2 SWAP1 POP JUMP JUMPDEST PUSH0 PUSH1 0x20 DUP3 ADD SWAP1 POP DUP2 DUP2 SUB PUSH0 DUP4 ADD MSTORE PUSH2 0xDEA DUP2 PUSH2 0xDB1 JUMP JUMPDEST SWAP1 POP SWAP2 SWAP1 POP JUMP JUMPDEST PUSH32 0x4E487B7100000000000000000000000000000000000000000000000000000000 PUSH0 MSTORE PUSH1 0x11 PUSH1 0x4 MSTORE PUSH1 0x24 PUSH0 REVERT JUMPDEST PUSH0 PUSH2 0xE28 DUP3 PUSH2 0x982 JUMP JUMPDEST SWAP2 POP PUSH32 0xFFFFFFFFFFFFFFFFFFFFFFFFFFFFFFFFFFFFFFFFFFFFFFFFFFFFFFFFFFFFFFFF DUP3 SUB PUSH2 0xE5A JUMPI PUSH2 0xE59 PUSH2 0xDF1 JUMP JUMPDEST JUMPDEST PUSH1 0x1 DUP3 ADD SWAP1 POP SWAP2 SWAP1 POP JUMP JUMPDEST PUSH32 0x596F7520617265206E6F7420616C6C6F77656420746F2073656E6420616E7920 PUSH0 DUP3 ADD MSTORE PUSH32 0x7472616E73616374696F6E732C2061626F7274696E6700000000000000000000 PUSH1 0x20 DUP3 ADD MSTORE POP JUMP JUMPDEST PUSH0 PUSH2 0xEBF PUSH1 0x36 DUP4 PUSH2 0xCA9 JUMP JUMPDEST SWAP2 POP PUSH2 0xECA DUP3 PUSH2 0xE65 JUMP JUMPDEST PUSH1 0x40 DUP3 ADD SWAP1 POP SWAP2 SWAP1 POP JUMP JUMPDEST PUSH0 PUSH1 0x20 DUP3 ADD SWAP1 POP DUP2 DUP2 SUB PUSH0 DUP4 ADD MSTORE PUSH2 0xEEC DUP2 PUSH2 0xEB3 JUMP JUMPDEST SWAP1 POP SWAP2 SWAP1 POP JUMP JUMPDEST PUSH32 0x596F752061726520747279696E6720746F2073656E64206D6F7265207468616E PUSH0 DUP3 ADD MSTORE PUSH32 0x20796F752061726520616C6C6F77656420746F2C2061626F7274696E67000000 PUSH1 0x20 DUP3 ADD MSTORE POP JUMP JUMPDEST PUSH0 PUSH2 0xF4D PUSH1 0x3D DUP4 PUSH2 0xCA9 JUMP JUMPDEST SWAP2 POP PUSH2 0xF58 DUP3 PUSH2 0xEF3 JUMP JUMPDEST PUSH1 0x40 DUP3 ADD SWAP1 POP SWAP2 SWAP1 POP JUMP JUMPDEST PUSH0 PUSH1 0x20 DUP3 ADD SWAP1 POP DUP2 DUP2 SUB PUSH0 DUP4 ADD MSTORE PUSH2 0xF7A DUP2 PUSH2 0xF41 JUMP JUMPDEST SWAP1 POP SWAP2 SWAP1 POP JUMP JUMPDEST PUSH0 PUSH2 0xF8B DUP3 PUSH2 0x982 JUMP JUMPDEST SWAP2 POP PUSH2 0xF96 DUP4 PUSH2 0x982 JUMP JUMPDEST SWAP3 POP DUP3 DUP3 SUB SWAP1 POP DUP2 DUP2 GT ISZERO PUSH2 0xFAE JUMPI PUSH2 0xFAD PUSH2 0xDF1 JUMP JUMPDEST JUMPDEST SWAP3 SWAP2 POP POP JUMP JUMPDEST PUSH0 DUP2 SWAP1 POP SWAP3 SWAP2 POP POP JUMP JUMPDEST PUSH0 PUSH2 0xFC8 DUP3 PUSH2 0xC29 JUMP JUMPDEST PUSH2 0xFD2 DUP2 DUP6 PUSH2 0xFB4 JUMP JUMPDEST SWAP4 POP PUSH2 0xFE2 DUP2 DUP6 PUSH1 0x20 DUP7 ADD PUSH2 0xC43 JUMP JUMPDEST DUP1 DUP5 ADD SWAP2 POP POP SWAP3 SWAP2 POP POP JUMP JUMPDEST PUSH0 PUSH2 0xFF9 DUP3 DUP5 PUSH2 0xFBE JUMP JUMPDEST SWAP2 POP DUP2 SWAP1 POP SWAP3 SWAP2 POP POP JUMP JUMPDEST PUSH32 0x41626F7274696E672C2063616C6C20776173206E6F7420737563636573736675 PUSH0 DUP3 ADD MSTORE PUSH32 0x6C00000000000000000000000000000000000000000000000000000000000000 PUSH1 0x20 DUP3 ADD MSTORE POP JUMP JUMPDEST PUSH0 PUSH2 0x105E PUSH1 0x21 DUP4 PUSH2 0xCA9 JUMP JUMPDEST SWAP2 POP PUSH2 0x1069 DUP3 PUSH2 0x1004 JUMP JUMPDEST PUSH1 0x40 DUP3 ADD SWAP1 POP SWAP2 SWAP1 POP JUMP JUMPDEST PUSH0 PUSH1 0x20 DUP3 ADD SWAP1 POP DUP2 DUP2 SUB PUSH0 DUP4 ADD MSTORE PUSH2 0x108B DUP2 PUSH2 0x1052 JUMP JUMPDEST SWAP1 POP SWAP2 SWAP1 POP JUMP INVALID LOG2 PUSH5 0x6970667358 0x22 SLT KECCAK256 SSTORE 0xC3 SWAP11 BLOBBASEFEE 0x2B 0xC2 PUSH17 0x5FDE2FC683606CA7AD204DE54D4032809C RETURNDATACOPY PUSH24 0x5B6422997F7E64736F6C634300081A003300000000000000 "
				},
				"gasEstimates": {
					"creation": {
						"codeDepositCost": "859200",
						"executionCost": "25159",
						"totalCost": "884359"
					},
					"external": {
						"allowance(address)": "2847",
						"confirmationsFromGuardiansForReset()": "325",
						"denySending(address)": "27035",
						"guardian(address)": "2899",
						"isAllowToSend(address)": "2834",
						"proposeNewOwner(address)": "60636",
						"setAllowance(address,uint256)": "49365",
						"transfer(address,uint256,bytes)": "infinite"
					}
				},
				"methodIdentifiers": {
					"allowance(address)": "3e5beab9",
					"confirmationsFromGuardiansForReset()": "83012be1",
					"denySending(address)": "7673de53",
					"guardian(address)": "f29e2236",
					"isAllowToSend(address)": "2a663f8a",
					"proposeNewOwner(address)": "b1f8100d",
					"setAllowance(address,uint256)": "310ec4a7",
					"transfer(address,uint256,bytes)": "be45fd62"
				}
			},
			"storageLayout": {
				"storage": [
					{
						"astId": 3,
						"contract": "contracts/SmartContractWallet.sol:SmartContractWallet",
						"label": "owner",
						"offset": 0,
						"slot": "0",
						"type": "t_address_payable"
					},
					{
						"astId": 7,
						"contract": "contracts/SmartContractWallet.sol:SmartContractWallet",
						"label": "allowance",
						"offset": 0,
						"slot": "1",
						"type": "t_mapping(t_address,t_uint256)"
					},
					{
						"astId": 11,
						"contract": "contracts/SmartContractWallet.sol:SmartContractWallet",
						"label": "isAllowToSend",
						"offset": 0,
						"slot": "2",
						"type": "t_mapping(t_address,t_bool)"
					},
					{
						"astId": 15,
						"contract": "contracts/SmartContractWallet.sol:SmartContractWallet",
						"label": "guardian",
						"offset": 0,
						"slot": "3",
						"type": "t_mapping(t_address,t_bool)"
					},
					{
						"astId": 17,
						"contract": "contracts/SmartContractWallet.sol:SmartContractWallet",
						"label": "nextOwner",
						"offset": 0,
						"slot": "4",
						"type": "t_address_payable"
					},
					{
						"astId": 19,
						"contract": "contracts/SmartContractWallet.sol:SmartContractWallet",
						"label": "guardiansResetCount",
						"offset": 0,
						"slot": "5",
						"type": "t_uint256"
					}
				],
				"types": {
					"t_address": {
						"encoding": "inplace",
						"label": "address",
						"numberOfBytes": "20"
					},
					"t_address_payable": {
						"encoding": "inplace",
						"label": "address payable",
						"numberOfBytes": "20"
					},
					"t_bool": {
						"encoding": "inplace",
						"label": "bool",
						"numberOfBytes": "1"
					},
					"t_mapping(t_address,t_bool)": {
						"encoding": "mapping",
						"key": "t_address",
						"label": "mapping(address => bool)",
						"numberOfBytes": "32",
						"value": "t_bool"
					},
					"t_mapping(t_address,t_uint256)": {
						"encoding": "mapping",
						"key": "t_address",
						"label": "mapping(address => uint256)",
						"numberOfBytes": "32",
						"value": "t_uint256"
					},
					"t_uint256": {
						"encoding": "inplace",
						"label": "uint256",
						"numberOfBytes": "32"
					}
				}
			},
			"userdoc": {
				"kind": "user",
				"methods": {},
				"version": 1
			}
		}
	}
}